{
	"Assignments/assignment-2(23.02.2026)/2)Contractstatus(bool).sol": {
		"contractstatus": {
			"abi": [
				{
					"inputs": [],
					"stateMutability": "nonpayable",
					"type": "constructor"
				},
				{
					"inputs": [],
					"name": "activate",
					"outputs": [],
					"stateMutability": "nonpayable",
					"type": "function"
				},
				{
					"inputs": [],
					"name": "deactivate",
					"outputs": [],
					"stateMutability": "nonpayable",
					"type": "function"
				},
				{
					"inputs": [],
					"name": "isActive",
					"outputs": [
						{
							"internalType": "bool",
							"name": "",
							"type": "bool"
						}
					],
					"stateMutability": "view",
					"type": "function"
				},
				{
					"inputs": [],
					"name": "restrictedAction",
					"outputs": [
						{
							"internalType": "bool",
							"name": "",
							"type": "bool"
						}
					],
					"stateMutability": "view",
					"type": "function"
				},
				{
					"inputs": [],
					"name": "togglestatus",
					"outputs": [],
					"stateMutability": "nonpayable",
					"type": "function"
				}
			],
			"devdoc": {
				"kind": "dev",
				"methods": {},
				"version": 1
			},
			"evm": {
				"assembly": "    /* \"Assignments/assignment-2(23.02.2026)/2)Contractstatus(bool).sol\":63:769  contract contractstatus {... */\n  mstore(0x40, 0x80)\n    /* \"Assignments/assignment-2(23.02.2026)/2)Contractstatus(bool).sol\":209:289  constructor() {... */\n  callvalue\n  dup1\n  iszero\n  tag_1\n  jumpi\n  revert(0x00, 0x00)\ntag_1:\n  pop\n    /* \"Assignments/assignment-2(23.02.2026)/2)Contractstatus(bool).sol\":246:250  true */\n  0x01\n    /* \"Assignments/assignment-2(23.02.2026)/2)Contractstatus(bool).sol\":235:243  isActive */\n  0x00\n  0x00\n    /* \"Assignments/assignment-2(23.02.2026)/2)Contractstatus(bool).sol\":235:250  isActive = true */\n  0x0100\n  exp\n  dup2\n  sload\n  dup2\n  0xff\n  mul\n  not\n  and\n  swap1\n  dup4\n  iszero\n  iszero\n  mul\n  or\n  swap1\n  sstore\n  pop\n    /* \"Assignments/assignment-2(23.02.2026)/2)Contractstatus(bool).sol\":63:769  contract contractstatus {... */\n  dataSize(sub_0)\n  dup1\n  dataOffset(sub_0)\n  0x00\n  codecopy\n  0x00\n  return\nstop\n\nsub_0: assembly {\n        /* \"Assignments/assignment-2(23.02.2026)/2)Contractstatus(bool).sol\":63:769  contract contractstatus {... */\n      mstore(0x40, 0x80)\n      callvalue\n      dup1\n      iszero\n      tag_1\n      jumpi\n      revert(0x00, 0x00)\n    tag_1:\n      pop\n      jumpi(tag_2, lt(calldatasize, 0x04))\n      shr(0xe0, calldataload(0x00))\n      dup1\n      0x0f15f4c0\n      eq\n      tag_3\n      jumpi\n      dup1\n      0x22f3e2d4\n      eq\n      tag_4\n      jumpi\n      dup1\n      0x443a354a\n      eq\n      tag_5\n      jumpi\n      dup1\n      0x51b42b00\n      eq\n      tag_6\n      jumpi\n      dup1\n      0x61baffe6\n      eq\n      tag_7\n      jumpi\n    tag_2:\n      revert(0x00, 0x00)\n        /* \"Assignments/assignment-2(23.02.2026)/2)Contractstatus(bool).sol\":327:388  function activate() public {... */\n    tag_3:\n      tag_8\n      tag_9\n      jump\t// in\n    tag_8:\n      stop\n        /* \"Assignments/assignment-2(23.02.2026)/2)Contractstatus(bool).sol\":125:145  bool public isActive */\n    tag_4:\n      tag_10\n      tag_11\n      jump\t// in\n    tag_10:\n      mload(0x40)\n      tag_12\n      swap2\n      swap1\n      tag_13\n      jump\t// in\n    tag_12:\n      mload(0x40)\n      dup1\n      swap2\n      sub\n      swap1\n      return\n        /* \"Assignments/assignment-2(23.02.2026)/2)Contractstatus(bool).sol\":545:614  function togglestatus() public{... */\n    tag_5:\n      tag_14\n      tag_15\n      jump\t// in\n    tag_14:\n      stop\n        /* \"Assignments/assignment-2(23.02.2026)/2)Contractstatus(bool).sol\":428:491  function deactivate() public{... */\n    tag_6:\n      tag_16\n      tag_17\n      jump\t// in\n    tag_16:\n      stop\n        /* \"Assignments/assignment-2(23.02.2026)/2)Contractstatus(bool).sol\":620:760  function restrictedAction() public view returns (bool) {... */\n    tag_7:\n      tag_18\n      tag_19\n      jump\t// in\n    tag_18:\n      mload(0x40)\n      tag_20\n      swap2\n      swap1\n      tag_13\n      jump\t// in\n    tag_20:\n      mload(0x40)\n      dup1\n      swap2\n      sub\n      swap1\n      return\n        /* \"Assignments/assignment-2(23.02.2026)/2)Contractstatus(bool).sol\":327:388  function activate() public {... */\n    tag_9:\n        /* \"Assignments/assignment-2(23.02.2026)/2)Contractstatus(bool).sol\":376:380  true */\n      0x01\n        /* \"Assignments/assignment-2(23.02.2026)/2)Contractstatus(bool).sol\":365:373  isActive */\n      0x00\n      0x00\n        /* \"Assignments/assignment-2(23.02.2026)/2)Contractstatus(bool).sol\":365:380  isActive = true */\n      0x0100\n      exp\n      dup2\n      sload\n      dup2\n      0xff\n      mul\n      not\n      and\n      swap1\n      dup4\n      iszero\n      iszero\n      mul\n      or\n      swap1\n      sstore\n      pop\n        /* \"Assignments/assignment-2(23.02.2026)/2)Contractstatus(bool).sol\":327:388  function activate() public {... */\n      jump\t// out\n        /* \"Assignments/assignment-2(23.02.2026)/2)Contractstatus(bool).sol\":125:145  bool public isActive */\n    tag_11:\n      0x00\n      0x00\n      swap1\n      sload\n      swap1\n      0x0100\n      exp\n      swap1\n      div\n      0xff\n      and\n      dup2\n      jump\t// out\n        /* \"Assignments/assignment-2(23.02.2026)/2)Contractstatus(bool).sol\":545:614  function togglestatus() public{... */\n    tag_15:\n        /* \"Assignments/assignment-2(23.02.2026)/2)Contractstatus(bool).sol\":598:606  isActive */\n      0x00\n      0x00\n      swap1\n      sload\n      swap1\n      0x0100\n      exp\n      swap1\n      div\n      0xff\n      and\n        /* \"Assignments/assignment-2(23.02.2026)/2)Contractstatus(bool).sol\":597:606  !isActive */\n      iszero\n        /* \"Assignments/assignment-2(23.02.2026)/2)Contractstatus(bool).sol\":586:594  isActive */\n      0x00\n      0x00\n        /* \"Assignments/assignment-2(23.02.2026)/2)Contractstatus(bool).sol\":586:606  isActive = !isActive */\n      0x0100\n      exp\n      dup2\n      sload\n      dup2\n      0xff\n      mul\n      not\n      and\n      swap1\n      dup4\n      iszero\n      iszero\n      mul\n      or\n      swap1\n      sstore\n      pop\n        /* \"Assignments/assignment-2(23.02.2026)/2)Contractstatus(bool).sol\":545:614  function togglestatus() public{... */\n      jump\t// out\n        /* \"Assignments/assignment-2(23.02.2026)/2)Contractstatus(bool).sol\":428:491  function deactivate() public{... */\n    tag_17:\n        /* \"Assignments/assignment-2(23.02.2026)/2)Contractstatus(bool).sol\":478:483  false */\n      0x00\n        /* \"Assignments/assignment-2(23.02.2026)/2)Contractstatus(bool).sol\":467:475  isActive */\n      0x00\n      0x00\n        /* \"Assignments/assignment-2(23.02.2026)/2)Contractstatus(bool).sol\":467:483  isActive = false */\n      0x0100\n      exp\n      dup2\n      sload\n      dup2\n      0xff\n      mul\n      not\n      and\n      swap1\n      dup4\n      iszero\n      iszero\n      mul\n      or\n      swap1\n      sstore\n      pop\n        /* \"Assignments/assignment-2(23.02.2026)/2)Contractstatus(bool).sol\":428:491  function deactivate() public{... */\n      jump\t// out\n        /* \"Assignments/assignment-2(23.02.2026)/2)Contractstatus(bool).sol\":620:760  function restrictedAction() public view returns (bool) {... */\n    tag_19:\n        /* \"Assignments/assignment-2(23.02.2026)/2)Contractstatus(bool).sol\":669:673  bool */\n      0x00\n        /* \"Assignments/assignment-2(23.02.2026)/2)Contractstatus(bool).sol\":694:702  isActive */\n      0x00\n      0x00\n      swap1\n      sload\n      swap1\n      0x0100\n      exp\n      swap1\n      div\n      0xff\n      and\n        /* \"Assignments/assignment-2(23.02.2026)/2)Contractstatus(bool).sol\":686:730  require(isActive, \"Contract is not active!\") */\n      tag_25\n      jumpi\n      mload(0x40)\n      0x08c379a000000000000000000000000000000000000000000000000000000000\n      dup2\n      mstore\n      0x04\n      add\n      tag_26\n      swap1\n      tag_27\n      jump\t// in\n    tag_26:\n      mload(0x40)\n      dup1\n      swap2\n      sub\n      swap1\n      revert\n    tag_25:\n        /* \"Assignments/assignment-2(23.02.2026)/2)Contractstatus(bool).sol\":748:756  isActive */\n      0x00\n      0x00\n      swap1\n      sload\n      swap1\n      0x0100\n      exp\n      swap1\n      div\n      0xff\n      and\n        /* \"Assignments/assignment-2(23.02.2026)/2)Contractstatus(bool).sol\":741:756  return isActive */\n      swap1\n      pop\n        /* \"Assignments/assignment-2(23.02.2026)/2)Contractstatus(bool).sol\":620:760  function restrictedAction() public view returns (bool) {... */\n      swap1\n      jump\t// out\n        /* \"#utility.yul\":7:97   */\n    tag_28:\n        /* \"#utility.yul\":41:48   */\n      0x00\n        /* \"#utility.yul\":84:89   */\n      dup2\n        /* \"#utility.yul\":77:90   */\n      iszero\n        /* \"#utility.yul\":70:91   */\n      iszero\n        /* \"#utility.yul\":59:91   */\n      swap1\n      pop\n        /* \"#utility.yul\":7:97   */\n      swap2\n      swap1\n      pop\n      jump\t// out\n        /* \"#utility.yul\":103:212   */\n    tag_29:\n        /* \"#utility.yul\":184:205   */\n      tag_36\n        /* \"#utility.yul\":199:204   */\n      dup2\n        /* \"#utility.yul\":184:205   */\n      tag_28\n      jump\t// in\n    tag_36:\n        /* \"#utility.yul\":179:182   */\n      dup3\n        /* \"#utility.yul\":172:206   */\n      mstore\n        /* \"#utility.yul\":103:212   */\n      pop\n      pop\n      jump\t// out\n        /* \"#utility.yul\":218:428   */\n    tag_13:\n        /* \"#utility.yul\":305:309   */\n      0x00\n        /* \"#utility.yul\":343:345   */\n      0x20\n        /* \"#utility.yul\":332:341   */\n      dup3\n        /* \"#utility.yul\":328:346   */\n      add\n        /* \"#utility.yul\":320:346   */\n      swap1\n      pop\n        /* \"#utility.yul\":356:421   */\n      tag_38\n        /* \"#utility.yul\":418:419   */\n      0x00\n        /* \"#utility.yul\":407:416   */\n      dup4\n        /* \"#utility.yul\":403:420   */\n      add\n        /* \"#utility.yul\":394:400   */\n      dup5\n        /* \"#utility.yul\":356:421   */\n      tag_29\n      jump\t// in\n    tag_38:\n        /* \"#utility.yul\":218:428   */\n      swap3\n      swap2\n      pop\n      pop\n      jump\t// out\n        /* \"#utility.yul\":434:603   */\n    tag_30:\n        /* \"#utility.yul\":518:529   */\n      0x00\n        /* \"#utility.yul\":552:558   */\n      dup3\n        /* \"#utility.yul\":547:550   */\n      dup3\n        /* \"#utility.yul\":540:559   */\n      mstore\n        /* \"#utility.yul\":592:596   */\n      0x20\n        /* \"#utility.yul\":587:590   */\n      dup3\n        /* \"#utility.yul\":583:597   */\n      add\n        /* \"#utility.yul\":568:597   */\n      swap1\n      pop\n        /* \"#utility.yul\":434:603   */\n      swap3\n      swap2\n      pop\n      pop\n      jump\t// out\n        /* \"#utility.yul\":609:782   */\n    tag_31:\n        /* \"#utility.yul\":749:774   */\n      0x436f6e7472616374206973206e6f742061637469766521000000000000000000\n        /* \"#utility.yul\":745:746   */\n      0x00\n        /* \"#utility.yul\":737:743   */\n      dup3\n        /* \"#utility.yul\":733:747   */\n      add\n        /* \"#utility.yul\":726:775   */\n      mstore\n        /* \"#utility.yul\":609:782   */\n      pop\n      jump\t// out\n        /* \"#utility.yul\":788:1154   */\n    tag_32:\n        /* \"#utility.yul\":930:933   */\n      0x00\n        /* \"#utility.yul\":951:1018   */\n      tag_42\n        /* \"#utility.yul\":1015:1017   */\n      0x17\n        /* \"#utility.yul\":1010:1013   */\n      dup4\n        /* \"#utility.yul\":951:1018   */\n      tag_30\n      jump\t// in\n    tag_42:\n        /* \"#utility.yul\":944:1018   */\n      swap2\n      pop\n        /* \"#utility.yul\":1027:1120   */\n      tag_43\n        /* \"#utility.yul\":1116:1119   */\n      dup3\n        /* \"#utility.yul\":1027:1120   */\n      tag_31\n      jump\t// in\n    tag_43:\n        /* \"#utility.yul\":1145:1147   */\n      0x20\n        /* \"#utility.yul\":1140:1143   */\n      dup3\n        /* \"#utility.yul\":1136:1148   */\n      add\n        /* \"#utility.yul\":1129:1148   */\n      swap1\n      pop\n        /* \"#utility.yul\":788:1154   */\n      swap2\n      swap1\n      pop\n      jump\t// out\n        /* \"#utility.yul\":1160:1579   */\n    tag_27:\n        /* \"#utility.yul\":1326:1330   */\n      0x00\n        /* \"#utility.yul\":1364:1366   */\n      0x20\n        /* \"#utility.yul\":1353:1362   */\n      dup3\n        /* \"#utility.yul\":1349:1367   */\n      add\n        /* \"#utility.yul\":1341:1367   */\n      swap1\n      pop\n        /* \"#utility.yul\":1413:1422   */\n      dup2\n        /* \"#utility.yul\":1407:1411   */\n      dup2\n        /* \"#utility.yul\":1403:1423   */\n      sub\n        /* \"#utility.yul\":1399:1400   */\n      0x00\n        /* \"#utility.yul\":1388:1397   */\n      dup4\n        /* \"#utility.yul\":1384:1401   */\n      add\n        /* \"#utility.yul\":1377:1424   */\n      mstore\n        /* \"#utility.yul\":1441:1572   */\n      tag_45\n        /* \"#utility.yul\":1567:1571   */\n      dup2\n        /* \"#utility.yul\":1441:1572   */\n      tag_32\n      jump\t// in\n    tag_45:\n        /* \"#utility.yul\":1433:1572   */\n      swap1\n      pop\n        /* \"#utility.yul\":1160:1579   */\n      swap2\n      swap1\n      pop\n      jump\t// out\n\n    auxdata: 0xa2646970667358221220ea7248cdcb7f6705f5be73aebd5ac597d58b79a40ced4419545c96eb36fca7f964736f6c634300081e0033\n}\n",
				"bytecode": {
					"linkReferences": {},
					"object": "6080604052348015600e575f5ffd5b5060015f5f6101000a81548160ff021916908315150217905550610263806100355f395ff3fe608060405234801561000f575f5ffd5b5060043610610055575f3560e01c80630f15f4c01461005957806322f3e2d414610063578063443a354a1461008157806351b42b001461008b57806361baffe614610095575b5f5ffd5b6100616100b3565b005b61006b6100ce565b604051610078919061019c565b60405180910390f35b6100896100df565b005b610093610107565b005b61009d610121565b6040516100aa919061019c565b60405180910390f35b60015f5f6101000a81548160ff021916908315150217905550565b5f5f9054906101000a900460ff1681565b5f5f9054906101000a900460ff16155f5f6101000a81548160ff021916908315150217905550565b5f5f5f6101000a81548160ff021916908315150217905550565b5f5f5f9054906101000a900460ff1661016f576040517f08c379a00000000000000000000000000000000000000000000000000000000081526004016101669061020f565b60405180910390fd5b5f5f9054906101000a900460ff16905090565b5f8115159050919050565b61019681610182565b82525050565b5f6020820190506101af5f83018461018d565b92915050565b5f82825260208201905092915050565b7f436f6e7472616374206973206e6f7420616374697665210000000000000000005f82015250565b5f6101f96017836101b5565b9150610204826101c5565b602082019050919050565b5f6020820190508181035f830152610226816101ed565b905091905056fea2646970667358221220ea7248cdcb7f6705f5be73aebd5ac597d58b79a40ced4419545c96eb36fca7f964736f6c634300081e0033",
					"opcodes": "PUSH1 0x80 PUSH1 0x40 MSTORE CALLVALUE DUP1 ISZERO PUSH1 0xE JUMPI PUSH0 PUSH0 REVERT JUMPDEST POP PUSH1 0x1 PUSH0 PUSH0 PUSH2 0x100 EXP DUP2 SLOAD DUP2 PUSH1 0xFF MUL NOT AND SWAP1 DUP4 ISZERO ISZERO MUL OR SWAP1 SSTORE POP PUSH2 0x263 DUP1 PUSH2 0x35 PUSH0 CODECOPY PUSH0 RETURN INVALID PUSH1 0x80 PUSH1 0x40 MSTORE CALLVALUE DUP1 ISZERO PUSH2 0xF JUMPI PUSH0 PUSH0 REVERT JUMPDEST POP PUSH1 0x4 CALLDATASIZE LT PUSH2 0x55 JUMPI PUSH0 CALLDATALOAD PUSH1 0xE0 SHR DUP1 PUSH4 0xF15F4C0 EQ PUSH2 0x59 JUMPI DUP1 PUSH4 0x22F3E2D4 EQ PUSH2 0x63 JUMPI DUP1 PUSH4 0x443A354A EQ PUSH2 0x81 JUMPI DUP1 PUSH4 0x51B42B00 EQ PUSH2 0x8B JUMPI DUP1 PUSH4 0x61BAFFE6 EQ PUSH2 0x95 JUMPI JUMPDEST PUSH0 PUSH0 REVERT JUMPDEST PUSH2 0x61 PUSH2 0xB3 JUMP JUMPDEST STOP JUMPDEST PUSH2 0x6B PUSH2 0xCE JUMP JUMPDEST PUSH1 0x40 MLOAD PUSH2 0x78 SWAP2 SWAP1 PUSH2 0x19C JUMP JUMPDEST PUSH1 0x40 MLOAD DUP1 SWAP2 SUB SWAP1 RETURN JUMPDEST PUSH2 0x89 PUSH2 0xDF JUMP JUMPDEST STOP JUMPDEST PUSH2 0x93 PUSH2 0x107 JUMP JUMPDEST STOP JUMPDEST PUSH2 0x9D PUSH2 0x121 JUMP JUMPDEST PUSH1 0x40 MLOAD PUSH2 0xAA SWAP2 SWAP1 PUSH2 0x19C JUMP JUMPDEST PUSH1 0x40 MLOAD DUP1 SWAP2 SUB SWAP1 RETURN JUMPDEST PUSH1 0x1 PUSH0 PUSH0 PUSH2 0x100 EXP DUP2 SLOAD DUP2 PUSH1 0xFF MUL NOT AND SWAP1 DUP4 ISZERO ISZERO MUL OR SWAP1 SSTORE POP JUMP JUMPDEST PUSH0 PUSH0 SWAP1 SLOAD SWAP1 PUSH2 0x100 EXP SWAP1 DIV PUSH1 0xFF AND DUP2 JUMP JUMPDEST PUSH0 PUSH0 SWAP1 SLOAD SWAP1 PUSH2 0x100 EXP SWAP1 DIV PUSH1 0xFF AND ISZERO PUSH0 PUSH0 PUSH2 0x100 EXP DUP2 SLOAD DUP2 PUSH1 0xFF MUL NOT AND SWAP1 DUP4 ISZERO ISZERO MUL OR SWAP1 SSTORE POP JUMP JUMPDEST PUSH0 PUSH0 PUSH0 PUSH2 0x100 EXP DUP2 SLOAD DUP2 PUSH1 0xFF MUL NOT AND SWAP1 DUP4 ISZERO ISZERO MUL OR SWAP1 SSTORE POP JUMP JUMPDEST PUSH0 PUSH0 PUSH0 SWAP1 SLOAD SWAP1 PUSH2 0x100 EXP SWAP1 DIV PUSH1 0xFF AND PUSH2 0x16F JUMPI PUSH1 0x40 MLOAD PUSH32 0x8C379A000000000000000000000000000000000000000000000000000000000 DUP2 MSTORE PUSH1 0x4 ADD PUSH2 0x166 SWAP1 PUSH2 0x20F JUMP JUMPDEST PUSH1 0x40 MLOAD DUP1 SWAP2 SUB SWAP1 REVERT JUMPDEST PUSH0 PUSH0 SWAP1 SLOAD SWAP1 PUSH2 0x100 EXP SWAP1 DIV PUSH1 0xFF AND SWAP1 POP SWAP1 JUMP JUMPDEST PUSH0 DUP2 ISZERO ISZERO SWAP1 POP SWAP2 SWAP1 POP JUMP JUMPDEST PUSH2 0x196 DUP2 PUSH2 0x182 JUMP JUMPDEST DUP3 MSTORE POP POP JUMP JUMPDEST PUSH0 PUSH1 0x20 DUP3 ADD SWAP1 POP PUSH2 0x1AF PUSH0 DUP4 ADD DUP5 PUSH2 0x18D JUMP JUMPDEST SWAP3 SWAP2 POP POP JUMP JUMPDEST PUSH0 DUP3 DUP3 MSTORE PUSH1 0x20 DUP3 ADD SWAP1 POP SWAP3 SWAP2 POP POP JUMP JUMPDEST PUSH32 0x436F6E7472616374206973206E6F742061637469766521000000000000000000 PUSH0 DUP3 ADD MSTORE POP JUMP JUMPDEST PUSH0 PUSH2 0x1F9 PUSH1 0x17 DUP4 PUSH2 0x1B5 JUMP JUMPDEST SWAP2 POP PUSH2 0x204 DUP3 PUSH2 0x1C5 JUMP JUMPDEST PUSH1 0x20 DUP3 ADD SWAP1 POP SWAP2 SWAP1 POP JUMP JUMPDEST PUSH0 PUSH1 0x20 DUP3 ADD SWAP1 POP DUP2 DUP2 SUB PUSH0 DUP4 ADD MSTORE PUSH2 0x226 DUP2 PUSH2 0x1ED JUMP JUMPDEST SWAP1 POP SWAP2 SWAP1 POP JUMP INVALID LOG2 PUSH5 0x6970667358 0x22 SLT KECCAK256 0xEA PUSH19 0x48CDCB7F6705F5BE73AEBD5AC597D58B79A40C 0xED PREVRANDAO NOT SLOAD TLOAD SWAP7 0xEB CALLDATASIZE 0xFC 0xA7 EXTDELEGATECALL PUSH5 0x736F6C6343 STOP ADDMOD 0x1E STOP CALLER "
				},
				"gasEstimates": {
					"creation": {
						"codeDepositCost": "122200",
						"executionCost": "24434",
						"totalCost": "146634"
					},
					"external": {
						"activate()": "24386",
						"deactivate()": "24451",
						"isActive()": "2465",
						"restrictedAction()": "4689",
						"togglestatus()": "26567"
					}
				},
				"methodIdentifiers": {
					"activate()": "0f15f4c0",
					"deactivate()": "51b42b00",
					"isActive()": "22f3e2d4",
					"restrictedAction()": "61baffe6",
					"togglestatus()": "443a354a"
				}
			},
			"storageLayout": {
				"storage": [
					{
						"astId": 3,
						"contract": "Assignments/assignment-2(23.02.2026)/2)Contractstatus(bool).sol:contractstatus",
						"label": "isActive",
						"offset": 0,
						"slot": "0",
						"type": "t_bool"
					}
				],
				"types": {
					"t_bool": {
						"encoding": "inplace",
						"label": "bool",
						"numberOfBytes": "1"
					}
				}
			},
			"userdoc": {
				"kind": "user",
				"methods": {},
				"version": 1
			}
		}
	}
}