{
	"Assignments/Assignments-1(17.02.2026)/EnrollmentInTechara.sol": {
		"StudentAge": {
			"abi": [
				{
					"inputs": [],
					"stateMutability": "nonpayable",
					"type": "constructor"
				},
				{
					"inputs": [],
					"name": "academy",
					"outputs": [
						{
							"internalType": "string",
							"name": "",
							"type": "string"
						}
					],
					"stateMutability": "view",
					"type": "function"
				},
				{
					"inputs": [
						{
							"internalType": "string",
							"name": "_newmessage",
							"type": "string"
						}
					],
					"name": "getacademy",
					"outputs": [],
					"stateMutability": "nonpayable",
					"type": "function"
				},
				{
					"inputs": [
						{
							"internalType": "int120",
							"name": "_newstudent",
							"type": "int120"
						}
					],
					"name": "getstudent",
					"outputs": [],
					"stateMutability": "nonpayable",
					"type": "function"
				},
				{
					"inputs": [],
					"name": "setacademy",
					"outputs": [
						{
							"internalType": "string",
							"name": "",
							"type": "string"
						}
					],
					"stateMutability": "view",
					"type": "function"
				},
				{
					"inputs": [],
					"name": "setstudenty",
					"outputs": [
						{
							"internalType": "int256",
							"name": "",
							"type": "int256"
						}
					],
					"stateMutability": "view",
					"type": "function"
				},
				{
					"inputs": [],
					"name": "student",
					"outputs": [
						{
							"internalType": "int120",
							"name": "",
							"type": "int120"
						}
					],
					"stateMutability": "view",
					"type": "function"
				}
			],
			"devdoc": {
				"kind": "dev",
				"methods": {},
				"version": 1
			},
			"evm": {
				"assembly": "    /* \"Assignments/Assignments-1(17.02.2026)/EnrollmentInTechara.sol\":63:540  contract StudentAge{... */\n  mstore(0x40, 0x80)\n    /* \"Assignments/Assignments-1(17.02.2026)/EnrollmentInTechara.sol\":141:203  constructor(){... */\n  callvalue\n  dup1\n  iszero\n  tag_1\n  jumpi\n  revert(0x00, 0x00)\ntag_1:\n  pop\n    /* \"Assignments/Assignments-1(17.02.2026)/EnrollmentInTechara.sol\":161:180  academy = \"Techara\" */\n  mload(0x40)\n  dup1\n  0x40\n  add\n  0x40\n  mstore\n  dup1\n  0x07\n  dup2\n  mstore\n  0x20\n  add\n  0x5465636861726100000000000000000000000000000000000000000000000000\n  dup2\n  mstore\n  pop\n    /* \"Assignments/Assignments-1(17.02.2026)/EnrollmentInTechara.sol\":161:168  academy */\n  0x00\n    /* \"Assignments/Assignments-1(17.02.2026)/EnrollmentInTechara.sol\":161:180  academy = \"Techara\" */\n  swap1\n  dup2\n  tag_4\n  swap2\n  swap1\n  tag_5\n  jump\t// in\ntag_4:\n  pop\n    /* \"Assignments/Assignments-1(17.02.2026)/EnrollmentInTechara.sol\":197:199  50 */\n  0x32\n    /* \"Assignments/Assignments-1(17.02.2026)/EnrollmentInTechara.sol\":187:194  student */\n  0x01\n  0x00\n    /* \"Assignments/Assignments-1(17.02.2026)/EnrollmentInTechara.sol\":187:199  student = 50 */\n  0x0100\n  exp\n  dup2\n  sload\n  dup2\n  0xffffffffffffffffffffffffffffff\n  mul\n  not\n  and\n  swap1\n  dup4\n  0x0e\n  signextend\n  0xffffffffffffffffffffffffffffff\n  and\n  mul\n  or\n  swap1\n  sstore\n  pop\n    /* \"Assignments/Assignments-1(17.02.2026)/EnrollmentInTechara.sol\":63:540  contract StudentAge{... */\n  jump(tag_6)\n    /* \"#utility.yul\":7:106   */\ntag_7:\n    /* \"#utility.yul\":59:65   */\n  0x00\n    /* \"#utility.yul\":93:98   */\n  dup2\n    /* \"#utility.yul\":87:99   */\n  mload\n    /* \"#utility.yul\":77:99   */\n  swap1\n  pop\n    /* \"#utility.yul\":7:106   */\n  swap2\n  swap1\n  pop\n  jump\t// out\n    /* \"#utility.yul\":112:292   */\ntag_8:\n    /* \"#utility.yul\":160:237   */\n  0x4e487b7100000000000000000000000000000000000000000000000000000000\n    /* \"#utility.yul\":157:158   */\n  0x00\n    /* \"#utility.yul\":150:238   */\n  mstore\n    /* \"#utility.yul\":257:261   */\n  0x41\n    /* \"#utility.yul\":254:255   */\n  0x04\n    /* \"#utility.yul\":247:262   */\n  mstore\n    /* \"#utility.yul\":281:285   */\n  0x24\n    /* \"#utility.yul\":278:279   */\n  0x00\n    /* \"#utility.yul\":271:286   */\n  revert\n    /* \"#utility.yul\":298:478   */\ntag_9:\n    /* \"#utility.yul\":346:423   */\n  0x4e487b7100000000000000000000000000000000000000000000000000000000\n    /* \"#utility.yul\":343:344   */\n  0x00\n    /* \"#utility.yul\":336:424   */\n  mstore\n    /* \"#utility.yul\":443:447   */\n  0x22\n    /* \"#utility.yul\":440:441   */\n  0x04\n    /* \"#utility.yul\":433:448   */\n  mstore\n    /* \"#utility.yul\":467:471   */\n  0x24\n    /* \"#utility.yul\":464:465   */\n  0x00\n    /* \"#utility.yul\":457:472   */\n  revert\n    /* \"#utility.yul\":484:804   */\ntag_10:\n    /* \"#utility.yul\":528:534   */\n  0x00\n    /* \"#utility.yul\":565:566   */\n  0x02\n    /* \"#utility.yul\":559:563   */\n  dup3\n    /* \"#utility.yul\":555:567   */\n  div\n    /* \"#utility.yul\":545:567   */\n  swap1\n  pop\n    /* \"#utility.yul\":612:613   */\n  0x01\n    /* \"#utility.yul\":606:610   */\n  dup3\n    /* \"#utility.yul\":602:614   */\n  and\n    /* \"#utility.yul\":633:651   */\n  dup1\n    /* \"#utility.yul\":623:704   */\n  tag_32\n  jumpi\n    /* \"#utility.yul\":689:693   */\n  0x7f\n    /* \"#utility.yul\":681:687   */\n  dup3\n    /* \"#utility.yul\":677:694   */\n  and\n    /* \"#utility.yul\":667:694   */\n  swap2\n  pop\n    /* \"#utility.yul\":623:704   */\ntag_32:\n    /* \"#utility.yul\":751:753   */\n  0x20\n    /* \"#utility.yul\":743:749   */\n  dup3\n    /* \"#utility.yul\":740:754   */\n  lt\n    /* \"#utility.yul\":720:738   */\n  dup2\n    /* \"#utility.yul\":717:755   */\n  sub\n    /* \"#utility.yul\":714:798   */\n  tag_33\n  jumpi\n    /* \"#utility.yul\":770:788   */\n  tag_34\n  tag_9\n  jump\t// in\ntag_34:\n    /* \"#utility.yul\":714:798   */\ntag_33:\n    /* \"#utility.yul\":535:804   */\n  pop\n    /* \"#utility.yul\":484:804   */\n  swap2\n  swap1\n  pop\n  jump\t// out\n    /* \"#utility.yul\":810:951   */\ntag_11:\n    /* \"#utility.yul\":859:863   */\n  0x00\n    /* \"#utility.yul\":882:885   */\n  dup2\n    /* \"#utility.yul\":874:885   */\n  swap1\n  pop\n    /* \"#utility.yul\":905:908   */\n  dup2\n    /* \"#utility.yul\":902:903   */\n  0x00\n    /* \"#utility.yul\":895:909   */\n  mstore\n    /* \"#utility.yul\":939:943   */\n  0x20\n    /* \"#utility.yul\":936:937   */\n  0x00\n    /* \"#utility.yul\":926:944   */\n  keccak256\n    /* \"#utility.yul\":918:944   */\n  swap1\n  pop\n    /* \"#utility.yul\":810:951   */\n  swap2\n  swap1\n  pop\n  jump\t// out\n    /* \"#utility.yul\":957:1050   */\ntag_12:\n    /* \"#utility.yul\":994:1000   */\n  0x00\n    /* \"#utility.yul\":1041:1043   */\n  0x20\n    /* \"#utility.yul\":1036:1038   */\n  0x1f\n    /* \"#utility.yul\":1029:1034   */\n  dup4\n    /* \"#utility.yul\":1025:1039   */\n  add\n    /* \"#utility.yul\":1021:1044   */\n  div\n    /* \"#utility.yul\":1011:1044   */\n  swap1\n  pop\n    /* \"#utility.yul\":957:1050   */\n  swap2\n  swap1\n  pop\n  jump\t// out\n    /* \"#utility.yul\":1056:1163   */\ntag_13:\n    /* \"#utility.yul\":1100:1108   */\n  0x00\n    /* \"#utility.yul\":1150:1155   */\n  dup3\n    /* \"#utility.yul\":1144:1148   */\n  dup3\n    /* \"#utility.yul\":1140:1156   */\n  shl\n    /* \"#utility.yul\":1119:1156   */\n  swap1\n  pop\n    /* \"#utility.yul\":1056:1163   */\n  swap3\n  swap2\n  pop\n  pop\n  jump\t// out\n    /* \"#utility.yul\":1169:1562   */\ntag_14:\n    /* \"#utility.yul\":1238:1244   */\n  0x00\n    /* \"#utility.yul\":1288:1289   */\n  0x08\n    /* \"#utility.yul\":1276:1286   */\n  dup4\n    /* \"#utility.yul\":1272:1290   */\n  mul\n    /* \"#utility.yul\":1311:1408   */\n  tag_39\n    /* \"#utility.yul\":1341:1407   */\n  0xffffffffffffffffffffffffffffffffffffffffffffffffffffffffffffffff\n    /* \"#utility.yul\":1330:1339   */\n  dup3\n    /* \"#utility.yul\":1311:1408   */\n  tag_13\n  jump\t// in\ntag_39:\n    /* \"#utility.yul\":1429:1468   */\n  tag_40\n    /* \"#utility.yul\":1459:1467   */\n  dup7\n    /* \"#utility.yul\":1448:1457   */\n  dup4\n    /* \"#utility.yul\":1429:1468   */\n  tag_13\n  jump\t// in\ntag_40:\n    /* \"#utility.yul\":1417:1468   */\n  swap6\n  pop\n    /* \"#utility.yul\":1501:1505   */\n  dup1\n    /* \"#utility.yul\":1497:1506   */\n  not\n    /* \"#utility.yul\":1490:1495   */\n  dup5\n    /* \"#utility.yul\":1486:1507   */\n  and\n    /* \"#utility.yul\":1477:1507   */\n  swap4\n  pop\n    /* \"#utility.yul\":1550:1554   */\n  dup1\n    /* \"#utility.yul\":1540:1548   */\n  dup7\n    /* \"#utility.yul\":1536:1555   */\n  and\n    /* \"#utility.yul\":1529:1534   */\n  dup5\n    /* \"#utility.yul\":1526:1556   */\n  or\n    /* \"#utility.yul\":1516:1556   */\n  swap3\n  pop\n    /* \"#utility.yul\":1245:1562   */\n  pop\n  pop\n    /* \"#utility.yul\":1169:1562   */\n  swap4\n  swap3\n  pop\n  pop\n  pop\n  jump\t// out\n    /* \"#utility.yul\":1568:1645   */\ntag_15:\n    /* \"#utility.yul\":1605:1612   */\n  0x00\n    /* \"#utility.yul\":1634:1639   */\n  dup2\n    /* \"#utility.yul\":1623:1639   */\n  swap1\n  pop\n    /* \"#utility.yul\":1568:1645   */\n  swap2\n  swap1\n  pop\n  jump\t// out\n    /* \"#utility.yul\":1651:1711   */\ntag_16:\n    /* \"#utility.yul\":1679:1682   */\n  0x00\n    /* \"#utility.yul\":1700:1705   */\n  dup2\n    /* \"#utility.yul\":1693:1705   */\n  swap1\n  pop\n    /* \"#utility.yul\":1651:1711   */\n  swap2\n  swap1\n  pop\n  jump\t// out\n    /* \"#utility.yul\":1717:1859   */\ntag_17:\n    /* \"#utility.yul\":1767:1776   */\n  0x00\n    /* \"#utility.yul\":1800:1853   */\n  tag_44\n    /* \"#utility.yul\":1818:1852   */\n  tag_45\n    /* \"#utility.yul\":1827:1851   */\n  tag_46\n    /* \"#utility.yul\":1845:1850   */\n  dup5\n    /* \"#utility.yul\":1827:1851   */\n  tag_15\n  jump\t// in\ntag_46:\n    /* \"#utility.yul\":1818:1852   */\n  tag_16\n  jump\t// in\ntag_45:\n    /* \"#utility.yul\":1800:1853   */\n  tag_15\n  jump\t// in\ntag_44:\n    /* \"#utility.yul\":1787:1853   */\n  swap1\n  pop\n    /* \"#utility.yul\":1717:1859   */\n  swap2\n  swap1\n  pop\n  jump\t// out\n    /* \"#utility.yul\":1865:1940   */\ntag_18:\n    /* \"#utility.yul\":1908:1911   */\n  0x00\n    /* \"#utility.yul\":1929:1934   */\n  dup2\n    /* \"#utility.yul\":1922:1934   */\n  swap1\n  pop\n    /* \"#utility.yul\":1865:1940   */\n  swap2\n  swap1\n  pop\n  jump\t// out\n    /* \"#utility.yul\":1946:2215   */\ntag_19:\n    /* \"#utility.yul\":2056:2095   */\n  tag_49\n    /* \"#utility.yul\":2087:2094   */\n  dup4\n    /* \"#utility.yul\":2056:2095   */\n  tag_17\n  jump\t// in\ntag_49:\n    /* \"#utility.yul\":2117:2208   */\n  tag_50\n    /* \"#utility.yul\":2166:2207   */\n  tag_51\n    /* \"#utility.yul\":2190:2206   */\n  dup3\n    /* \"#utility.yul\":2166:2207   */\n  tag_18\n  jump\t// in\ntag_51:\n    /* \"#utility.yul\":2158:2164   */\n  dup5\n    /* \"#utility.yul\":2151:2155   */\n  dup5\n    /* \"#utility.yul\":2145:2156   */\n  sload\n    /* \"#utility.yul\":2117:2208   */\n  tag_14\n  jump\t// in\ntag_50:\n    /* \"#utility.yul\":2111:2115   */\n  dup3\n    /* \"#utility.yul\":2104:2209   */\n  sstore\n    /* \"#utility.yul\":2022:2215   */\n  pop\n    /* \"#utility.yul\":1946:2215   */\n  pop\n  pop\n  pop\n  jump\t// out\n    /* \"#utility.yul\":2221:2294   */\ntag_20:\n    /* \"#utility.yul\":2266:2269   */\n  0x00\n    /* \"#utility.yul\":2287:2288   */\n  0x00\n    /* \"#utility.yul\":2280:2288   */\n  swap1\n  pop\n    /* \"#utility.yul\":2221:2294   */\n  swap1\n  jump\t// out\n    /* \"#utility.yul\":2300:2489   */\ntag_21:\n    /* \"#utility.yul\":2377:2409   */\n  tag_54\n  tag_20\n  jump\t// in\ntag_54:\n    /* \"#utility.yul\":2418:2483   */\n  tag_55\n    /* \"#utility.yul\":2476:2482   */\n  dup2\n    /* \"#utility.yul\":2468:2474   */\n  dup5\n    /* \"#utility.yul\":2462:2466   */\n  dup5\n    /* \"#utility.yul\":2418:2483   */\n  tag_19\n  jump\t// in\ntag_55:\n    /* \"#utility.yul\":2353:2489   */\n  pop\n    /* \"#utility.yul\":2300:2489   */\n  pop\n  pop\n  jump\t// out\n    /* \"#utility.yul\":2495:2681   */\ntag_22:\n    /* \"#utility.yul\":2555:2675   */\ntag_57:\n    /* \"#utility.yul\":2572:2575   */\n  dup2\n    /* \"#utility.yul\":2565:2570   */\n  dup2\n    /* \"#utility.yul\":2562:2576   */\n  lt\n    /* \"#utility.yul\":2555:2675   */\n  iszero\n  tag_59\n  jumpi\n    /* \"#utility.yul\":2626:2665   */\n  tag_60\n    /* \"#utility.yul\":2663:2664   */\n  0x00\n    /* \"#utility.yul\":2656:2661   */\n  dup3\n    /* \"#utility.yul\":2626:2665   */\n  tag_21\n  jump\t// in\ntag_60:\n    /* \"#utility.yul\":2599:2600   */\n  0x01\n    /* \"#utility.yul\":2592:2597   */\n  dup2\n    /* \"#utility.yul\":2588:2601   */\n  add\n    /* \"#utility.yul\":2579:2601   */\n  swap1\n  pop\n    /* \"#utility.yul\":2555:2675   */\n  jump(tag_57)\ntag_59:\n    /* \"#utility.yul\":2495:2681   */\n  pop\n  pop\n  jump\t// out\n    /* \"#utility.yul\":2687:3230   */\ntag_23:\n    /* \"#utility.yul\":2788:2790   */\n  0x1f\n    /* \"#utility.yul\":2783:2786   */\n  dup3\n    /* \"#utility.yul\":2780:2791   */\n  gt\n    /* \"#utility.yul\":2777:3223   */\n  iszero\n  tag_62\n  jumpi\n    /* \"#utility.yul\":2822:2860   */\n  tag_63\n    /* \"#utility.yul\":2854:2859   */\n  dup2\n    /* \"#utility.yul\":2822:2860   */\n  tag_11\n  jump\t// in\ntag_63:\n    /* \"#utility.yul\":2906:2935   */\n  tag_64\n    /* \"#utility.yul\":2924:2934   */\n  dup5\n    /* \"#utility.yul\":2906:2935   */\n  tag_12\n  jump\t// in\ntag_64:\n    /* \"#utility.yul\":2896:2904   */\n  dup2\n    /* \"#utility.yul\":2892:2936   */\n  add\n    /* \"#utility.yul\":3089:3091   */\n  0x20\n    /* \"#utility.yul\":3077:3087   */\n  dup6\n    /* \"#utility.yul\":3074:3092   */\n  lt\n    /* \"#utility.yul\":3071:3120   */\n  iszero\n  tag_65\n  jumpi\n    /* \"#utility.yul\":3110:3118   */\n  dup2\n    /* \"#utility.yul\":3095:3118   */\n  swap1\n  pop\n    /* \"#utility.yul\":3071:3120   */\ntag_65:\n    /* \"#utility.yul\":3133:3213   */\n  tag_66\n    /* \"#utility.yul\":3189:3211   */\n  tag_67\n    /* \"#utility.yul\":3207:3210   */\n  dup6\n    /* \"#utility.yul\":3189:3211   */\n  tag_12\n  jump\t// in\ntag_67:\n    /* \"#utility.yul\":3179:3187   */\n  dup4\n    /* \"#utility.yul\":3175:3212   */\n  add\n    /* \"#utility.yul\":3162:3173   */\n  dup3\n    /* \"#utility.yul\":3133:3213   */\n  tag_22\n  jump\t// in\ntag_66:\n    /* \"#utility.yul\":2792:3223   */\n  pop\n  pop\n    /* \"#utility.yul\":2777:3223   */\ntag_62:\n    /* \"#utility.yul\":2687:3230   */\n  pop\n  pop\n  pop\n  jump\t// out\n    /* \"#utility.yul\":3236:3353   */\ntag_24:\n    /* \"#utility.yul\":3290:3298   */\n  0x00\n    /* \"#utility.yul\":3340:3345   */\n  dup3\n    /* \"#utility.yul\":3334:3338   */\n  dup3\n    /* \"#utility.yul\":3330:3346   */\n  shr\n    /* \"#utility.yul\":3309:3346   */\n  swap1\n  pop\n    /* \"#utility.yul\":3236:3353   */\n  swap3\n  swap2\n  pop\n  pop\n  jump\t// out\n    /* \"#utility.yul\":3359:3528   */\ntag_25:\n    /* \"#utility.yul\":3403:3409   */\n  0x00\n    /* \"#utility.yul\":3436:3487   */\n  tag_70\n    /* \"#utility.yul\":3484:3485   */\n  0x00\n    /* \"#utility.yul\":3480:3486   */\n  not\n    /* \"#utility.yul\":3472:3477   */\n  dup5\n    /* \"#utility.yul\":3469:3470   */\n  0x08\n    /* \"#utility.yul\":3465:3478   */\n  mul\n    /* \"#utility.yul\":3436:3487   */\n  tag_24\n  jump\t// in\ntag_70:\n    /* \"#utility.yul\":3432:3488   */\n  not\n    /* \"#utility.yul\":3517:3521   */\n  dup1\n    /* \"#utility.yul\":3511:3515   */\n  dup4\n    /* \"#utility.yul\":3507:3522   */\n  and\n    /* \"#utility.yul\":3497:3522   */\n  swap2\n  pop\n    /* \"#utility.yul\":3410:3528   */\n  pop\n    /* \"#utility.yul\":3359:3528   */\n  swap3\n  swap2\n  pop\n  pop\n  jump\t// out\n    /* \"#utility.yul\":3533:3828   */\ntag_26:\n    /* \"#utility.yul\":3609:3613   */\n  0x00\n    /* \"#utility.yul\":3755:3784   */\n  tag_72\n    /* \"#utility.yul\":3780:3783   */\n  dup4\n    /* \"#utility.yul\":3774:3778   */\n  dup4\n    /* \"#utility.yul\":3755:3784   */\n  tag_25\n  jump\t// in\ntag_72:\n    /* \"#utility.yul\":3747:3784   */\n  swap2\n  pop\n    /* \"#utility.yul\":3817:3820   */\n  dup3\n    /* \"#utility.yul\":3814:3815   */\n  0x02\n    /* \"#utility.yul\":3810:3821   */\n  mul\n    /* \"#utility.yul\":3804:3808   */\n  dup3\n    /* \"#utility.yul\":3801:3822   */\n  or\n    /* \"#utility.yul\":3793:3822   */\n  swap1\n  pop\n    /* \"#utility.yul\":3533:3828   */\n  swap3\n  swap2\n  pop\n  pop\n  jump\t// out\n    /* \"#utility.yul\":3833:5228   */\ntag_5:\n    /* \"#utility.yul\":3950:3987   */\n  tag_74\n    /* \"#utility.yul\":3983:3986   */\n  dup3\n    /* \"#utility.yul\":3950:3987   */\n  tag_7\n  jump\t// in\ntag_74:\n    /* \"#utility.yul\":4052:4070   */\n  0xffffffffffffffff\n    /* \"#utility.yul\":4044:4050   */\n  dup2\n    /* \"#utility.yul\":4041:4071   */\n  gt\n    /* \"#utility.yul\":4038:4094   */\n  iszero\n  tag_75\n  jumpi\n    /* \"#utility.yul\":4074:4092   */\n  tag_76\n  tag_8\n  jump\t// in\ntag_76:\n    /* \"#utility.yul\":4038:4094   */\ntag_75:\n    /* \"#utility.yul\":4118:4156   */\n  tag_77\n    /* \"#utility.yul\":4150:4154   */\n  dup3\n    /* \"#utility.yul\":4144:4155   */\n  sload\n    /* \"#utility.yul\":4118:4156   */\n  tag_10\n  jump\t// in\ntag_77:\n    /* \"#utility.yul\":4203:4270   */\n  tag_78\n    /* \"#utility.yul\":4263:4269   */\n  dup3\n    /* \"#utility.yul\":4255:4261   */\n  dup3\n    /* \"#utility.yul\":4249:4253   */\n  dup6\n    /* \"#utility.yul\":4203:4270   */\n  tag_23\n  jump\t// in\ntag_78:\n    /* \"#utility.yul\":4297:4298   */\n  0x00\n    /* \"#utility.yul\":4321:4325   */\n  0x20\n    /* \"#utility.yul\":4308:4325   */\n  swap1\n  pop\n    /* \"#utility.yul\":4353:4355   */\n  0x1f\n    /* \"#utility.yul\":4345:4351   */\n  dup4\n    /* \"#utility.yul\":4342:4356   */\n  gt\n    /* \"#utility.yul\":4370:4371   */\n  0x01\n    /* \"#utility.yul\":4365:4983   */\n  dup2\n  eq\n  tag_80\n  jumpi\n    /* \"#utility.yul\":5027:5028   */\n  0x00\n    /* \"#utility.yul\":5044:5050   */\n  dup5\n    /* \"#utility.yul\":5041:5118   */\n  iszero\n  tag_81\n  jumpi\n    /* \"#utility.yul\":5093:5102   */\n  dup3\n    /* \"#utility.yul\":5088:5091   */\n  dup8\n    /* \"#utility.yul\":5084:5103   */\n  add\n    /* \"#utility.yul\":5078:5104   */\n  mload\n    /* \"#utility.yul\":5069:5104   */\n  swap1\n  pop\n    /* \"#utility.yul\":5041:5118   */\ntag_81:\n    /* \"#utility.yul\":5144:5211   */\n  tag_82\n    /* \"#utility.yul\":5204:5210   */\n  dup6\n    /* \"#utility.yul\":5197:5202   */\n  dup3\n    /* \"#utility.yul\":5144:5211   */\n  tag_26\n  jump\t// in\ntag_82:\n    /* \"#utility.yul\":5138:5142   */\n  dup7\n    /* \"#utility.yul\":5131:5212   */\n  sstore\n    /* \"#utility.yul\":5000:5222   */\n  pop\n    /* \"#utility.yul\":4335:5222   */\n  jump(tag_79)\n    /* \"#utility.yul\":4365:4983   */\ntag_80:\n    /* \"#utility.yul\":4417:4421   */\n  0x1f\n    /* \"#utility.yul\":4413:4422   */\n  not\n    /* \"#utility.yul\":4405:4411   */\n  dup5\n    /* \"#utility.yul\":4401:4423   */\n  and\n    /* \"#utility.yul\":4451:4488   */\n  tag_83\n    /* \"#utility.yul\":4483:4487   */\n  dup7\n    /* \"#utility.yul\":4451:4488   */\n  tag_11\n  jump\t// in\ntag_83:\n    /* \"#utility.yul\":4510:4511   */\n  0x00\n    /* \"#utility.yul\":4524:4732   */\ntag_84:\n    /* \"#utility.yul\":4538:4545   */\n  dup3\n    /* \"#utility.yul\":4535:4536   */\n  dup2\n    /* \"#utility.yul\":4532:4546   */\n  lt\n    /* \"#utility.yul\":4524:4732   */\n  iszero\n  tag_86\n  jumpi\n    /* \"#utility.yul\":4617:4626   */\n  dup5\n    /* \"#utility.yul\":4612:4615   */\n  dup10\n    /* \"#utility.yul\":4608:4627   */\n  add\n    /* \"#utility.yul\":4602:4628   */\n  mload\n    /* \"#utility.yul\":4594:4600   */\n  dup3\n    /* \"#utility.yul\":4587:4629   */\n  sstore\n    /* \"#utility.yul\":4668:4669   */\n  0x01\n    /* \"#utility.yul\":4660:4666   */\n  dup3\n    /* \"#utility.yul\":4656:4670   */\n  add\n    /* \"#utility.yul\":4646:4670   */\n  swap2\n  pop\n    /* \"#utility.yul\":4715:4717   */\n  0x20\n    /* \"#utility.yul\":4704:4713   */\n  dup6\n    /* \"#utility.yul\":4700:4718   */\n  add\n    /* \"#utility.yul\":4687:4718   */\n  swap5\n  pop\n    /* \"#utility.yul\":4561:4565   */\n  0x20\n    /* \"#utility.yul\":4558:4559   */\n  dup2\n    /* \"#utility.yul\":4554:4566   */\n  add\n    /* \"#utility.yul\":4549:4566   */\n  swap1\n  pop\n    /* \"#utility.yul\":4524:4732   */\n  jump(tag_84)\ntag_86:\n    /* \"#utility.yul\":4760:4766   */\n  dup7\n    /* \"#utility.yul\":4751:4758   */\n  dup4\n    /* \"#utility.yul\":4748:4767   */\n  lt\n    /* \"#utility.yul\":4745:4924   */\n  iszero\n  tag_87\n  jumpi\n    /* \"#utility.yul\":4818:4827   */\n  dup5\n    /* \"#utility.yul\":4813:4816   */\n  dup10\n    /* \"#utility.yul\":4809:4828   */\n  add\n    /* \"#utility.yul\":4803:4829   */\n  mload\n    /* \"#utility.yul\":4861:4909   */\n  tag_88\n    /* \"#utility.yul\":4903:4907   */\n  0x1f\n    /* \"#utility.yul\":4895:4901   */\n  dup10\n    /* \"#utility.yul\":4891:4908   */\n  and\n    /* \"#utility.yul\":4880:4889   */\n  dup3\n    /* \"#utility.yul\":4861:4909   */\n  tag_25\n  jump\t// in\ntag_88:\n    /* \"#utility.yul\":4853:4859   */\n  dup4\n    /* \"#utility.yul\":4846:4910   */\n  sstore\n    /* \"#utility.yul\":4768:4924   */\n  pop\n    /* \"#utility.yul\":4745:4924   */\ntag_87:\n    /* \"#utility.yul\":4970:4971   */\n  0x01\n    /* \"#utility.yul\":4966:4967   */\n  0x02\n    /* \"#utility.yul\":4958:4964   */\n  dup9\n    /* \"#utility.yul\":4954:4968   */\n  mul\n    /* \"#utility.yul\":4950:4972   */\n  add\n    /* \"#utility.yul\":4944:4948   */\n  dup9\n    /* \"#utility.yul\":4937:4973   */\n  sstore\n    /* \"#utility.yul\":4372:4983   */\n  pop\n  pop\n  pop\n    /* \"#utility.yul\":4335:5222   */\ntag_79:\n  pop\n    /* \"#utility.yul\":3925:5228   */\n  pop\n  pop\n  pop\n    /* \"#utility.yul\":3833:5228   */\n  pop\n  pop\n  jump\t// out\n    /* \"Assignments/Assignments-1(17.02.2026)/EnrollmentInTechara.sol\":63:540  contract StudentAge{... */\ntag_6:\n  dataSize(sub_0)\n  dup1\n  dataOffset(sub_0)\n  0x00\n  codecopy\n  0x00\n  return\nstop\n\nsub_0: assembly {\n        /* \"Assignments/Assignments-1(17.02.2026)/EnrollmentInTechara.sol\":63:540  contract StudentAge{... */\n      mstore(0x40, 0x80)\n      callvalue\n      dup1\n      iszero\n      tag_1\n      jumpi\n      revert(0x00, 0x00)\n    tag_1:\n      pop\n      jumpi(tag_2, lt(calldatasize, 0x04))\n      shr(0xe0, calldataload(0x00))\n      dup1\n      0x2928b2a2\n      eq\n      tag_3\n      jumpi\n      dup1\n      0x4f5fc3c1\n      eq\n      tag_4\n      jumpi\n      dup1\n      0x5277c08d\n      eq\n      tag_5\n      jumpi\n      dup1\n      0x699450e8\n      eq\n      tag_6\n      jumpi\n      dup1\n      0x988f35eb\n      eq\n      tag_7\n      jumpi\n      dup1\n      0xde219836\n      eq\n      tag_8\n      jumpi\n    tag_2:\n      revert(0x00, 0x00)\n        /* \"Assignments/Assignments-1(17.02.2026)/EnrollmentInTechara.sol\":205:284  function getstudent(int120 _newstudent) public {... */\n    tag_3:\n      tag_9\n      0x04\n      dup1\n      calldatasize\n      sub\n      dup2\n      add\n      swap1\n      tag_10\n      swap2\n      swap1\n      tag_11\n      jump\t// in\n    tag_10:\n      tag_12\n      jump\t// in\n    tag_9:\n      stop\n        /* \"Assignments/Assignments-1(17.02.2026)/EnrollmentInTechara.sol\":89:110  string public academy */\n    tag_4:\n      tag_13\n      tag_14\n      jump\t// in\n    tag_13:\n      mload(0x40)\n      tag_15\n      swap2\n      swap1\n      tag_16\n      jump\t// in\n    tag_15:\n      mload(0x40)\n      dup1\n      swap2\n      sub\n      swap1\n      return\n        /* \"Assignments/Assignments-1(17.02.2026)/EnrollmentInTechara.sol\":375:450  function setstudenty() public view returns(int256){... */\n    tag_5:\n      tag_17\n      tag_18\n      jump\t// in\n    tag_17:\n      mload(0x40)\n      tag_19\n      swap2\n      swap1\n      tag_20\n      jump\t// in\n    tag_19:\n      mload(0x40)\n      dup1\n      swap2\n      sub\n      swap1\n      return\n        /* \"Assignments/Assignments-1(17.02.2026)/EnrollmentInTechara.sol\":117:138  int120 public student */\n    tag_6:\n      tag_21\n      tag_22\n      jump\t// in\n    tag_21:\n      mload(0x40)\n      tag_23\n      swap2\n      swap1\n      tag_24\n      jump\t// in\n    tag_23:\n      mload(0x40)\n      dup1\n      swap2\n      sub\n      swap1\n      return\n        /* \"Assignments/Assignments-1(17.02.2026)/EnrollmentInTechara.sol\":287:373  function getacademy(string memory _newmessage) public {... */\n    tag_7:\n      tag_25\n      0x04\n      dup1\n      calldatasize\n      sub\n      dup2\n      add\n      swap1\n      tag_26\n      swap2\n      swap1\n      tag_27\n      jump\t// in\n    tag_26:\n      tag_28\n      jump\t// in\n    tag_25:\n      stop\n        /* \"Assignments/Assignments-1(17.02.2026)/EnrollmentInTechara.sol\":452:537  function setacademy() public view returns(string memory){... */\n    tag_8:\n      tag_29\n      tag_30\n      jump\t// in\n    tag_29:\n      mload(0x40)\n      tag_31\n      swap2\n      swap1\n      tag_16\n      jump\t// in\n    tag_31:\n      mload(0x40)\n      dup1\n      swap2\n      sub\n      swap1\n      return\n        /* \"Assignments/Assignments-1(17.02.2026)/EnrollmentInTechara.sol\":205:284  function getstudent(int120 _newstudent) public {... */\n    tag_12:\n        /* \"Assignments/Assignments-1(17.02.2026)/EnrollmentInTechara.sol\":269:280  _newstudent */\n      dup1\n        /* \"Assignments/Assignments-1(17.02.2026)/EnrollmentInTechara.sol\":259:266  student */\n      0x01\n      0x00\n        /* \"Assignments/Assignments-1(17.02.2026)/EnrollmentInTechara.sol\":259:280  student = _newstudent */\n      0x0100\n      exp\n      dup2\n      sload\n      dup2\n      0xffffffffffffffffffffffffffffff\n      mul\n      not\n      and\n      swap1\n      dup4\n      0x0e\n      signextend\n      0xffffffffffffffffffffffffffffff\n      and\n      mul\n      or\n      swap1\n      sstore\n      pop\n        /* \"Assignments/Assignments-1(17.02.2026)/EnrollmentInTechara.sol\":205:284  function getstudent(int120 _newstudent) public {... */\n      pop\n      jump\t// out\n        /* \"Assignments/Assignments-1(17.02.2026)/EnrollmentInTechara.sol\":89:110  string public academy */\n    tag_14:\n      0x00\n      dup1\n      sload\n      tag_33\n      swap1\n      tag_34\n      jump\t// in\n    tag_33:\n      dup1\n      0x1f\n      add\n      0x20\n      dup1\n      swap2\n      div\n      mul\n      0x20\n      add\n      mload(0x40)\n      swap1\n      dup2\n      add\n      0x40\n      mstore\n      dup1\n      swap3\n      swap2\n      swap1\n      dup2\n      dup2\n      mstore\n      0x20\n      add\n      dup3\n      dup1\n      sload\n      tag_35\n      swap1\n      tag_34\n      jump\t// in\n    tag_35:\n      dup1\n      iszero\n      tag_36\n      jumpi\n      dup1\n      0x1f\n      lt\n      tag_37\n      jumpi\n      0x0100\n      dup1\n      dup4\n      sload\n      div\n      mul\n      dup4\n      mstore\n      swap2\n      0x20\n      add\n      swap2\n      jump(tag_36)\n    tag_37:\n      dup3\n      add\n      swap2\n      swap1\n      0x00\n      mstore\n      keccak256(0x00, 0x20)\n      swap1\n    tag_38:\n      dup2\n      sload\n      dup2\n      mstore\n      swap1\n      0x01\n      add\n      swap1\n      0x20\n      add\n      dup1\n      dup4\n      gt\n      tag_38\n      jumpi\n      dup3\n      swap1\n      sub\n      0x1f\n      and\n      dup3\n      add\n      swap2\n    tag_36:\n      pop\n      pop\n      pop\n      pop\n      pop\n      dup2\n      jump\t// out\n        /* \"Assignments/Assignments-1(17.02.2026)/EnrollmentInTechara.sol\":375:450  function setstudenty() public view returns(int256){... */\n    tag_18:\n        /* \"Assignments/Assignments-1(17.02.2026)/EnrollmentInTechara.sol\":418:424  int256 */\n      0x00\n        /* \"Assignments/Assignments-1(17.02.2026)/EnrollmentInTechara.sol\":439:446  student */\n      0x01\n      0x00\n      swap1\n      sload\n      swap1\n      0x0100\n      exp\n      swap1\n      div\n      0x0e\n      signextend\n        /* \"Assignments/Assignments-1(17.02.2026)/EnrollmentInTechara.sol\":432:446  return student */\n      0x0e\n      signextend\n      swap1\n      pop\n        /* \"Assignments/Assignments-1(17.02.2026)/EnrollmentInTechara.sol\":375:450  function setstudenty() public view returns(int256){... */\n      swap1\n      jump\t// out\n        /* \"Assignments/Assignments-1(17.02.2026)/EnrollmentInTechara.sol\":117:138  int120 public student */\n    tag_22:\n      0x01\n      0x00\n      swap1\n      sload\n      swap1\n      0x0100\n      exp\n      swap1\n      div\n      0x0e\n      signextend\n      dup2\n      jump\t// out\n        /* \"Assignments/Assignments-1(17.02.2026)/EnrollmentInTechara.sol\":287:373  function getacademy(string memory _newmessage) public {... */\n    tag_28:\n        /* \"Assignments/Assignments-1(17.02.2026)/EnrollmentInTechara.sol\":358:369  _newmessage */\n      dup1\n        /* \"Assignments/Assignments-1(17.02.2026)/EnrollmentInTechara.sol\":348:355  academy */\n      0x00\n        /* \"Assignments/Assignments-1(17.02.2026)/EnrollmentInTechara.sol\":348:369  academy = _newmessage */\n      swap1\n      dup2\n      tag_41\n      swap2\n      swap1\n      tag_42\n      jump\t// in\n    tag_41:\n      pop\n        /* \"Assignments/Assignments-1(17.02.2026)/EnrollmentInTechara.sol\":287:373  function getacademy(string memory _newmessage) public {... */\n      pop\n      jump\t// out\n        /* \"Assignments/Assignments-1(17.02.2026)/EnrollmentInTechara.sol\":452:537  function setacademy() public view returns(string memory){... */\n    tag_30:\n        /* \"Assignments/Assignments-1(17.02.2026)/EnrollmentInTechara.sol\":494:507  string memory */\n      0x60\n        /* \"Assignments/Assignments-1(17.02.2026)/EnrollmentInTechara.sol\":522:529  academy */\n      0x00\n        /* \"Assignments/Assignments-1(17.02.2026)/EnrollmentInTechara.sol\":515:529  return academy */\n      dup1\n      sload\n      tag_44\n      swap1\n      tag_34\n      jump\t// in\n    tag_44:\n      dup1\n      0x1f\n      add\n      0x20\n      dup1\n      swap2\n      div\n      mul\n      0x20\n      add\n      mload(0x40)\n      swap1\n      dup2\n      add\n      0x40\n      mstore\n      dup1\n      swap3\n      swap2\n      swap1\n      dup2\n      dup2\n      mstore\n      0x20\n      add\n      dup3\n      dup1\n      sload\n      tag_45\n      swap1\n      tag_34\n      jump\t// in\n    tag_45:\n      dup1\n      iszero\n      tag_46\n      jumpi\n      dup1\n      0x1f\n      lt\n      tag_47\n      jumpi\n      0x0100\n      dup1\n      dup4\n      sload\n      div\n      mul\n      dup4\n      mstore\n      swap2\n      0x20\n      add\n      swap2\n      jump(tag_46)\n    tag_47:\n      dup3\n      add\n      swap2\n      swap1\n      0x00\n      mstore\n      keccak256(0x00, 0x20)\n      swap1\n    tag_48:\n      dup2\n      sload\n      dup2\n      mstore\n      swap1\n      0x01\n      add\n      swap1\n      0x20\n      add\n      dup1\n      dup4\n      gt\n      tag_48\n      jumpi\n      dup3\n      swap1\n      sub\n      0x1f\n      and\n      dup3\n      add\n      swap2\n    tag_46:\n      pop\n      pop\n      pop\n      pop\n      pop\n      swap1\n      pop\n        /* \"Assignments/Assignments-1(17.02.2026)/EnrollmentInTechara.sol\":452:537  function setacademy() public view returns(string memory){... */\n      swap1\n      jump\t// out\n        /* \"#utility.yul\":7:82   */\n    tag_49:\n        /* \"#utility.yul\":40:46   */\n      0x00\n        /* \"#utility.yul\":73:75   */\n      0x40\n        /* \"#utility.yul\":67:76   */\n      mload\n        /* \"#utility.yul\":57:76   */\n      swap1\n      pop\n        /* \"#utility.yul\":7:82   */\n      swap1\n      jump\t// out\n        /* \"#utility.yul\":88:205   */\n    tag_50:\n        /* \"#utility.yul\":197:198   */\n      0x00\n        /* \"#utility.yul\":194:195   */\n      0x00\n        /* \"#utility.yul\":187:199   */\n      revert\n        /* \"#utility.yul\":211:328   */\n    tag_51:\n        /* \"#utility.yul\":320:321   */\n      0x00\n        /* \"#utility.yul\":317:318   */\n      0x00\n        /* \"#utility.yul\":310:322   */\n      revert\n        /* \"#utility.yul\":334:426   */\n    tag_52:\n        /* \"#utility.yul\":370:377   */\n      0x00\n        /* \"#utility.yul\":414:419   */\n      dup2\n        /* \"#utility.yul\":410:412   */\n      0x0e\n        /* \"#utility.yul\":399:420   */\n      signextend\n        /* \"#utility.yul\":388:420   */\n      swap1\n      pop\n        /* \"#utility.yul\":334:426   */\n      swap2\n      swap1\n      pop\n      jump\t// out\n        /* \"#utility.yul\":432:552   */\n    tag_53:\n        /* \"#utility.yul\":504:527   */\n      tag_95\n        /* \"#utility.yul\":521:526   */\n      dup2\n        /* \"#utility.yul\":504:527   */\n      tag_52\n      jump\t// in\n    tag_95:\n        /* \"#utility.yul\":497:502   */\n      dup2\n        /* \"#utility.yul\":494:528   */\n      eq\n        /* \"#utility.yul\":484:546   */\n      tag_96\n      jumpi\n        /* \"#utility.yul\":542:543   */\n      0x00\n        /* \"#utility.yul\":539:540   */\n      0x00\n        /* \"#utility.yul\":532:544   */\n      revert\n        /* \"#utility.yul\":484:546   */\n    tag_96:\n        /* \"#utility.yul\":432:552   */\n      pop\n      jump\t// out\n        /* \"#utility.yul\":558:695   */\n    tag_54:\n        /* \"#utility.yul\":603:608   */\n      0x00\n        /* \"#utility.yul\":641:647   */\n      dup2\n        /* \"#utility.yul\":628:648   */\n      calldataload\n        /* \"#utility.yul\":619:648   */\n      swap1\n      pop\n        /* \"#utility.yul\":657:689   */\n      tag_98\n        /* \"#utility.yul\":683:688   */\n      dup2\n        /* \"#utility.yul\":657:689   */\n      tag_53\n      jump\t// in\n    tag_98:\n        /* \"#utility.yul\":558:695   */\n      swap3\n      swap2\n      pop\n      pop\n      jump\t// out\n        /* \"#utility.yul\":701:1028   */\n    tag_11:\n        /* \"#utility.yul\":759:765   */\n      0x00\n        /* \"#utility.yul\":808:810   */\n      0x20\n        /* \"#utility.yul\":796:805   */\n      dup3\n        /* \"#utility.yul\":787:794   */\n      dup5\n        /* \"#utility.yul\":783:806   */\n      sub\n        /* \"#utility.yul\":779:811   */\n      slt\n        /* \"#utility.yul\":776:895   */\n      iszero\n      tag_100\n      jumpi\n        /* \"#utility.yul\":814:893   */\n      tag_101\n      tag_50\n      jump\t// in\n    tag_101:\n        /* \"#utility.yul\":776:895   */\n    tag_100:\n        /* \"#utility.yul\":934:935   */\n      0x00\n        /* \"#utility.yul\":959:1011   */\n      tag_102\n        /* \"#utility.yul\":1003:1010   */\n      dup5\n        /* \"#utility.yul\":994:1000   */\n      dup3\n        /* \"#utility.yul\":983:992   */\n      dup6\n        /* \"#utility.yul\":979:1001   */\n      add\n        /* \"#utility.yul\":959:1011   */\n      tag_54\n      jump\t// in\n    tag_102:\n        /* \"#utility.yul\":949:1011   */\n      swap2\n      pop\n        /* \"#utility.yul\":905:1021   */\n      pop\n        /* \"#utility.yul\":701:1028   */\n      swap3\n      swap2\n      pop\n      pop\n      jump\t// out\n        /* \"#utility.yul\":1034:1133   */\n    tag_55:\n        /* \"#utility.yul\":1086:1092   */\n      0x00\n        /* \"#utility.yul\":1120:1125   */\n      dup2\n        /* \"#utility.yul\":1114:1126   */\n      mload\n        /* \"#utility.yul\":1104:1126   */\n      swap1\n      pop\n        /* \"#utility.yul\":1034:1133   */\n      swap2\n      swap1\n      pop\n      jump\t// out\n        /* \"#utility.yul\":1139:1308   */\n    tag_56:\n        /* \"#utility.yul\":1223:1234   */\n      0x00\n        /* \"#utility.yul\":1257:1263   */\n      dup3\n        /* \"#utility.yul\":1252:1255   */\n      dup3\n        /* \"#utility.yul\":1245:1264   */\n      mstore\n        /* \"#utility.yul\":1297:1301   */\n      0x20\n        /* \"#utility.yul\":1292:1295   */\n      dup3\n        /* \"#utility.yul\":1288:1302   */\n      add\n        /* \"#utility.yul\":1273:1302   */\n      swap1\n      pop\n        /* \"#utility.yul\":1139:1308   */\n      swap3\n      swap2\n      pop\n      pop\n      jump\t// out\n        /* \"#utility.yul\":1314:1453   */\n    tag_57:\n        /* \"#utility.yul\":1403:1409   */\n      dup3\n        /* \"#utility.yul\":1398:1401   */\n      dup2\n        /* \"#utility.yul\":1393:1396   */\n      dup4\n        /* \"#utility.yul\":1387:1410   */\n      mcopy\n        /* \"#utility.yul\":1444:1445   */\n      0x00\n        /* \"#utility.yul\":1435:1441   */\n      dup4\n        /* \"#utility.yul\":1430:1433   */\n      dup4\n        /* \"#utility.yul\":1426:1442   */\n      add\n        /* \"#utility.yul\":1419:1446   */\n      mstore\n        /* \"#utility.yul\":1314:1453   */\n      pop\n      pop\n      pop\n      jump\t// out\n        /* \"#utility.yul\":1459:1561   */\n    tag_58:\n        /* \"#utility.yul\":1500:1506   */\n      0x00\n        /* \"#utility.yul\":1551:1553   */\n      0x1f\n        /* \"#utility.yul\":1547:1554   */\n      not\n        /* \"#utility.yul\":1542:1544   */\n      0x1f\n        /* \"#utility.yul\":1535:1540   */\n      dup4\n        /* \"#utility.yul\":1531:1545   */\n      add\n        /* \"#utility.yul\":1527:1555   */\n      and\n        /* \"#utility.yul\":1517:1555   */\n      swap1\n      pop\n        /* \"#utility.yul\":1459:1561   */\n      swap2\n      swap1\n      pop\n      jump\t// out\n        /* \"#utility.yul\":1567:1944   */\n    tag_59:\n        /* \"#utility.yul\":1655:1658   */\n      0x00\n        /* \"#utility.yul\":1683:1722   */\n      tag_108\n        /* \"#utility.yul\":1716:1721   */\n      dup3\n        /* \"#utility.yul\":1683:1722   */\n      tag_55\n      jump\t// in\n    tag_108:\n        /* \"#utility.yul\":1738:1809   */\n      tag_109\n        /* \"#utility.yul\":1802:1808   */\n      dup2\n        /* \"#utility.yul\":1797:1800   */\n      dup6\n        /* \"#utility.yul\":1738:1809   */\n      tag_56\n      jump\t// in\n    tag_109:\n        /* \"#utility.yul\":1731:1809   */\n      swap4\n      pop\n        /* \"#utility.yul\":1818:1883   */\n      tag_110\n        /* \"#utility.yul\":1876:1882   */\n      dup2\n        /* \"#utility.yul\":1871:1874   */\n      dup6\n        /* \"#utility.yul\":1864:1868   */\n      0x20\n        /* \"#utility.yul\":1857:1862   */\n      dup7\n        /* \"#utility.yul\":1853:1869   */\n      add\n        /* \"#utility.yul\":1818:1883   */\n      tag_57\n      jump\t// in\n    tag_110:\n        /* \"#utility.yul\":1908:1937   */\n      tag_111\n        /* \"#utility.yul\":1930:1936   */\n      dup2\n        /* \"#utility.yul\":1908:1937   */\n      tag_58\n      jump\t// in\n    tag_111:\n        /* \"#utility.yul\":1903:1906   */\n      dup5\n        /* \"#utility.yul\":1899:1938   */\n      add\n        /* \"#utility.yul\":1892:1938   */\n      swap2\n      pop\n        /* \"#utility.yul\":1659:1944   */\n      pop\n        /* \"#utility.yul\":1567:1944   */\n      swap3\n      swap2\n      pop\n      pop\n      jump\t// out\n        /* \"#utility.yul\":1950:2263   */\n    tag_16:\n        /* \"#utility.yul\":2063:2067   */\n      0x00\n        /* \"#utility.yul\":2101:2103   */\n      0x20\n        /* \"#utility.yul\":2090:2099   */\n      dup3\n        /* \"#utility.yul\":2086:2104   */\n      add\n        /* \"#utility.yul\":2078:2104   */\n      swap1\n      pop\n        /* \"#utility.yul\":2150:2159   */\n      dup2\n        /* \"#utility.yul\":2144:2148   */\n      dup2\n        /* \"#utility.yul\":2140:2160   */\n      sub\n        /* \"#utility.yul\":2136:2137   */\n      0x00\n        /* \"#utility.yul\":2125:2134   */\n      dup4\n        /* \"#utility.yul\":2121:2138   */\n      add\n        /* \"#utility.yul\":2114:2161   */\n      mstore\n        /* \"#utility.yul\":2178:2256   */\n      tag_113\n        /* \"#utility.yul\":2251:2255   */\n      dup2\n        /* \"#utility.yul\":2242:2248   */\n      dup5\n        /* \"#utility.yul\":2178:2256   */\n      tag_59\n      jump\t// in\n    tag_113:\n        /* \"#utility.yul\":2170:2256   */\n      swap1\n      pop\n        /* \"#utility.yul\":1950:2263   */\n      swap3\n      swap2\n      pop\n      pop\n      jump\t// out\n        /* \"#utility.yul\":2269:2345   */\n    tag_60:\n        /* \"#utility.yul\":2305:2312   */\n      0x00\n        /* \"#utility.yul\":2334:2339   */\n      dup2\n        /* \"#utility.yul\":2323:2339   */\n      swap1\n      pop\n        /* \"#utility.yul\":2269:2345   */\n      swap2\n      swap1\n      pop\n      jump\t// out\n        /* \"#utility.yul\":2351:2466   */\n    tag_61:\n        /* \"#utility.yul\":2436:2459   */\n      tag_116\n        /* \"#utility.yul\":2453:2458   */\n      dup2\n        /* \"#utility.yul\":2436:2459   */\n      tag_60\n      jump\t// in\n    tag_116:\n        /* \"#utility.yul\":2431:2434   */\n      dup3\n        /* \"#utility.yul\":2424:2460   */\n      mstore\n        /* \"#utility.yul\":2351:2466   */\n      pop\n      pop\n      jump\t// out\n        /* \"#utility.yul\":2472:2690   */\n    tag_20:\n        /* \"#utility.yul\":2563:2567   */\n      0x00\n        /* \"#utility.yul\":2601:2603   */\n      0x20\n        /* \"#utility.yul\":2590:2599   */\n      dup3\n        /* \"#utility.yul\":2586:2604   */\n      add\n        /* \"#utility.yul\":2578:2604   */\n      swap1\n      pop\n        /* \"#utility.yul\":2614:2683   */\n      tag_118\n        /* \"#utility.yul\":2680:2681   */\n      0x00\n        /* \"#utility.yul\":2669:2678   */\n      dup4\n        /* \"#utility.yul\":2665:2682   */\n      add\n        /* \"#utility.yul\":2656:2662   */\n      dup5\n        /* \"#utility.yul\":2614:2683   */\n      tag_61\n      jump\t// in\n    tag_118:\n        /* \"#utility.yul\":2472:2690   */\n      swap3\n      swap2\n      pop\n      pop\n      jump\t// out\n        /* \"#utility.yul\":2696:2811   */\n    tag_62:\n        /* \"#utility.yul\":2781:2804   */\n      tag_120\n        /* \"#utility.yul\":2798:2803   */\n      dup2\n        /* \"#utility.yul\":2781:2804   */\n      tag_52\n      jump\t// in\n    tag_120:\n        /* \"#utility.yul\":2776:2779   */\n      dup3\n        /* \"#utility.yul\":2769:2805   */\n      mstore\n        /* \"#utility.yul\":2696:2811   */\n      pop\n      pop\n      jump\t// out\n        /* \"#utility.yul\":2817:3035   */\n    tag_24:\n        /* \"#utility.yul\":2908:2912   */\n      0x00\n        /* \"#utility.yul\":2946:2948   */\n      0x20\n        /* \"#utility.yul\":2935:2944   */\n      dup3\n        /* \"#utility.yul\":2931:2949   */\n      add\n        /* \"#utility.yul\":2923:2949   */\n      swap1\n      pop\n        /* \"#utility.yul\":2959:3028   */\n      tag_122\n        /* \"#utility.yul\":3025:3026   */\n      0x00\n        /* \"#utility.yul\":3014:3023   */\n      dup4\n        /* \"#utility.yul\":3010:3027   */\n      add\n        /* \"#utility.yul\":3001:3007   */\n      dup5\n        /* \"#utility.yul\":2959:3028   */\n      tag_62\n      jump\t// in\n    tag_122:\n        /* \"#utility.yul\":2817:3035   */\n      swap3\n      swap2\n      pop\n      pop\n      jump\t// out\n        /* \"#utility.yul\":3041:3158   */\n    tag_63:\n        /* \"#utility.yul\":3150:3151   */\n      0x00\n        /* \"#utility.yul\":3147:3148   */\n      0x00\n        /* \"#utility.yul\":3140:3152   */\n      revert\n        /* \"#utility.yul\":3164:3281   */\n    tag_64:\n        /* \"#utility.yul\":3273:3274   */\n      0x00\n        /* \"#utility.yul\":3270:3271   */\n      0x00\n        /* \"#utility.yul\":3263:3275   */\n      revert\n        /* \"#utility.yul\":3287:3467   */\n    tag_65:\n        /* \"#utility.yul\":3335:3412   */\n      0x4e487b7100000000000000000000000000000000000000000000000000000000\n        /* \"#utility.yul\":3332:3333   */\n      0x00\n        /* \"#utility.yul\":3325:3413   */\n      mstore\n        /* \"#utility.yul\":3432:3436   */\n      0x41\n        /* \"#utility.yul\":3429:3430   */\n      0x04\n        /* \"#utility.yul\":3422:3437   */\n      mstore\n        /* \"#utility.yul\":3456:3460   */\n      0x24\n        /* \"#utility.yul\":3453:3454   */\n      0x00\n        /* \"#utility.yul\":3446:3461   */\n      revert\n        /* \"#utility.yul\":3473:3754   */\n    tag_66:\n        /* \"#utility.yul\":3556:3583   */\n      tag_127\n        /* \"#utility.yul\":3578:3582   */\n      dup3\n        /* \"#utility.yul\":3556:3583   */\n      tag_58\n      jump\t// in\n    tag_127:\n        /* \"#utility.yul\":3548:3554   */\n      dup2\n        /* \"#utility.yul\":3544:3584   */\n      add\n        /* \"#utility.yul\":3686:3692   */\n      dup2\n        /* \"#utility.yul\":3674:3684   */\n      dup2\n        /* \"#utility.yul\":3671:3693   */\n      lt\n        /* \"#utility.yul\":3650:3668   */\n      0xffffffffffffffff\n        /* \"#utility.yul\":3638:3648   */\n      dup3\n        /* \"#utility.yul\":3635:3669   */\n      gt\n        /* \"#utility.yul\":3632:3694   */\n      or\n        /* \"#utility.yul\":3629:3717   */\n      iszero\n      tag_128\n      jumpi\n        /* \"#utility.yul\":3697:3715   */\n      tag_129\n      tag_65\n      jump\t// in\n    tag_129:\n        /* \"#utility.yul\":3629:3717   */\n    tag_128:\n        /* \"#utility.yul\":3737:3747   */\n      dup1\n        /* \"#utility.yul\":3733:3735   */\n      0x40\n        /* \"#utility.yul\":3726:3748   */\n      mstore\n        /* \"#utility.yul\":3516:3754   */\n      pop\n        /* \"#utility.yul\":3473:3754   */\n      pop\n      pop\n      jump\t// out\n        /* \"#utility.yul\":3760:3889   */\n    tag_67:\n        /* \"#utility.yul\":3794:3800   */\n      0x00\n        /* \"#utility.yul\":3821:3841   */\n      tag_131\n      tag_49\n      jump\t// in\n    tag_131:\n        /* \"#utility.yul\":3811:3841   */\n      swap1\n      pop\n        /* \"#utility.yul\":3850:3883   */\n      tag_132\n        /* \"#utility.yul\":3878:3882   */\n      dup3\n        /* \"#utility.yul\":3870:3876   */\n      dup3\n        /* \"#utility.yul\":3850:3883   */\n      tag_66\n      jump\t// in\n    tag_132:\n        /* \"#utility.yul\":3760:3889   */\n      swap2\n      swap1\n      pop\n      jump\t// out\n        /* \"#utility.yul\":3895:4203   */\n    tag_68:\n        /* \"#utility.yul\":3957:3961   */\n      0x00\n        /* \"#utility.yul\":4047:4065   */\n      0xffffffffffffffff\n        /* \"#utility.yul\":4039:4045   */\n      dup3\n        /* \"#utility.yul\":4036:4066   */\n      gt\n        /* \"#utility.yul\":4033:4089   */\n      iszero\n      tag_134\n      jumpi\n        /* \"#utility.yul\":4069:4087   */\n      tag_135\n      tag_65\n      jump\t// in\n    tag_135:\n        /* \"#utility.yul\":4033:4089   */\n    tag_134:\n        /* \"#utility.yul\":4107:4136   */\n      tag_136\n        /* \"#utility.yul\":4129:4135   */\n      dup3\n        /* \"#utility.yul\":4107:4136   */\n      tag_58\n      jump\t// in\n    tag_136:\n        /* \"#utility.yul\":4099:4136   */\n      swap1\n      pop\n        /* \"#utility.yul\":4191:4195   */\n      0x20\n        /* \"#utility.yul\":4185:4189   */\n      dup2\n        /* \"#utility.yul\":4181:4196   */\n      add\n        /* \"#utility.yul\":4173:4196   */\n      swap1\n      pop\n        /* \"#utility.yul\":3895:4203   */\n      swap2\n      swap1\n      pop\n      jump\t// out\n        /* \"#utility.yul\":4209:4357   */\n    tag_69:\n        /* \"#utility.yul\":4307:4313   */\n      dup3\n        /* \"#utility.yul\":4302:4305   */\n      dup2\n        /* \"#utility.yul\":4297:4300   */\n      dup4\n        /* \"#utility.yul\":4284:4314   */\n      calldatacopy\n        /* \"#utility.yul\":4348:4349   */\n      0x00\n        /* \"#utility.yul\":4339:4345   */\n      dup4\n        /* \"#utility.yul\":4334:4337   */\n      dup4\n        /* \"#utility.yul\":4330:4346   */\n      add\n        /* \"#utility.yul\":4323:4350   */\n      mstore\n        /* \"#utility.yul\":4209:4357   */\n      pop\n      pop\n      pop\n      jump\t// out\n        /* \"#utility.yul\":4363:4788   */\n    tag_70:\n        /* \"#utility.yul\":4441:4446   */\n      0x00\n        /* \"#utility.yul\":4466:4532   */\n      tag_139\n        /* \"#utility.yul\":4482:4531   */\n      tag_140\n        /* \"#utility.yul\":4524:4530   */\n      dup5\n        /* \"#utility.yul\":4482:4531   */\n      tag_68\n      jump\t// in\n    tag_140:\n        /* \"#utility.yul\":4466:4532   */\n      tag_67\n      jump\t// in\n    tag_139:\n        /* \"#utility.yul\":4457:4532   */\n      swap1\n      pop\n        /* \"#utility.yul\":4555:4561   */\n      dup3\n        /* \"#utility.yul\":4548:4553   */\n      dup2\n        /* \"#utility.yul\":4541:4562   */\n      mstore\n        /* \"#utility.yul\":4593:4597   */\n      0x20\n        /* \"#utility.yul\":4586:4591   */\n      dup2\n        /* \"#utility.yul\":4582:4598   */\n      add\n        /* \"#utility.yul\":4631:4634   */\n      dup5\n        /* \"#utility.yul\":4622:4628   */\n      dup5\n        /* \"#utility.yul\":4617:4620   */\n      dup5\n        /* \"#utility.yul\":4613:4629   */\n      add\n        /* \"#utility.yul\":4610:4635   */\n      gt\n        /* \"#utility.yul\":4607:4719   */\n      iszero\n      tag_141\n      jumpi\n        /* \"#utility.yul\":4638:4717   */\n      tag_142\n      tag_64\n      jump\t// in\n    tag_142:\n        /* \"#utility.yul\":4607:4719   */\n    tag_141:\n        /* \"#utility.yul\":4728:4782   */\n      tag_143\n        /* \"#utility.yul\":4775:4781   */\n      dup5\n        /* \"#utility.yul\":4770:4773   */\n      dup3\n        /* \"#utility.yul\":4765:4768   */\n      dup6\n        /* \"#utility.yul\":4728:4782   */\n      tag_69\n      jump\t// in\n    tag_143:\n        /* \"#utility.yul\":4447:4788   */\n      pop\n        /* \"#utility.yul\":4363:4788   */\n      swap4\n      swap3\n      pop\n      pop\n      pop\n      jump\t// out\n        /* \"#utility.yul\":4808:5148   */\n    tag_71:\n        /* \"#utility.yul\":4864:4869   */\n      0x00\n        /* \"#utility.yul\":4913:4916   */\n      dup3\n        /* \"#utility.yul\":4906:4910   */\n      0x1f\n        /* \"#utility.yul\":4898:4904   */\n      dup4\n        /* \"#utility.yul\":4894:4911   */\n      add\n        /* \"#utility.yul\":4890:4917   */\n      slt\n        /* \"#utility.yul\":4880:5002   */\n      tag_145\n      jumpi\n        /* \"#utility.yul\":4921:5000   */\n      tag_146\n      tag_63\n      jump\t// in\n    tag_146:\n        /* \"#utility.yul\":4880:5002   */\n    tag_145:\n        /* \"#utility.yul\":5038:5044   */\n      dup2\n        /* \"#utility.yul\":5025:5045   */\n      calldataload\n        /* \"#utility.yul\":5063:5142   */\n      tag_147\n        /* \"#utility.yul\":5138:5141   */\n      dup5\n        /* \"#utility.yul\":5130:5136   */\n      dup3\n        /* \"#utility.yul\":5123:5127   */\n      0x20\n        /* \"#utility.yul\":5115:5121   */\n      dup7\n        /* \"#utility.yul\":5111:5128   */\n      add\n        /* \"#utility.yul\":5063:5142   */\n      tag_70\n      jump\t// in\n    tag_147:\n        /* \"#utility.yul\":5054:5142   */\n      swap2\n      pop\n        /* \"#utility.yul\":4870:5148   */\n      pop\n        /* \"#utility.yul\":4808:5148   */\n      swap3\n      swap2\n      pop\n      pop\n      jump\t// out\n        /* \"#utility.yul\":5154:5663   */\n    tag_27:\n        /* \"#utility.yul\":5223:5229   */\n      0x00\n        /* \"#utility.yul\":5272:5274   */\n      0x20\n        /* \"#utility.yul\":5260:5269   */\n      dup3\n        /* \"#utility.yul\":5251:5258   */\n      dup5\n        /* \"#utility.yul\":5247:5270   */\n      sub\n        /* \"#utility.yul\":5243:5275   */\n      slt\n        /* \"#utility.yul\":5240:5359   */\n      iszero\n      tag_149\n      jumpi\n        /* \"#utility.yul\":5278:5357   */\n      tag_150\n      tag_50\n      jump\t// in\n    tag_150:\n        /* \"#utility.yul\":5240:5359   */\n    tag_149:\n        /* \"#utility.yul\":5426:5427   */\n      0x00\n        /* \"#utility.yul\":5415:5424   */\n      dup3\n        /* \"#utility.yul\":5411:5428   */\n      add\n        /* \"#utility.yul\":5398:5429   */\n      calldataload\n        /* \"#utility.yul\":5456:5474   */\n      0xffffffffffffffff\n        /* \"#utility.yul\":5448:5454   */\n      dup2\n        /* \"#utility.yul\":5445:5475   */\n      gt\n        /* \"#utility.yul\":5442:5559   */\n      iszero\n      tag_151\n      jumpi\n        /* \"#utility.yul\":5478:5557   */\n      tag_152\n      tag_51\n      jump\t// in\n    tag_152:\n        /* \"#utility.yul\":5442:5559   */\n    tag_151:\n        /* \"#utility.yul\":5583:5646   */\n      tag_153\n        /* \"#utility.yul\":5638:5645   */\n      dup5\n        /* \"#utility.yul\":5629:5635   */\n      dup3\n        /* \"#utility.yul\":5618:5627   */\n      dup6\n        /* \"#utility.yul\":5614:5636   */\n      add\n        /* \"#utility.yul\":5583:5646   */\n      tag_71\n      jump\t// in\n    tag_153:\n        /* \"#utility.yul\":5573:5646   */\n      swap2\n      pop\n        /* \"#utility.yul\":5369:5656   */\n      pop\n        /* \"#utility.yul\":5154:5663   */\n      swap3\n      swap2\n      pop\n      pop\n      jump\t// out\n        /* \"#utility.yul\":5669:5849   */\n    tag_72:\n        /* \"#utility.yul\":5717:5794   */\n      0x4e487b7100000000000000000000000000000000000000000000000000000000\n        /* \"#utility.yul\":5714:5715   */\n      0x00\n        /* \"#utility.yul\":5707:5795   */\n      mstore\n        /* \"#utility.yul\":5814:5818   */\n      0x22\n        /* \"#utility.yul\":5811:5812   */\n      0x04\n        /* \"#utility.yul\":5804:5819   */\n      mstore\n        /* \"#utility.yul\":5838:5842   */\n      0x24\n        /* \"#utility.yul\":5835:5836   */\n      0x00\n        /* \"#utility.yul\":5828:5843   */\n      revert\n        /* \"#utility.yul\":5855:6175   */\n    tag_34:\n        /* \"#utility.yul\":5899:5905   */\n      0x00\n        /* \"#utility.yul\":5936:5937   */\n      0x02\n        /* \"#utility.yul\":5930:5934   */\n      dup3\n        /* \"#utility.yul\":5926:5938   */\n      div\n        /* \"#utility.yul\":5916:5938   */\n      swap1\n      pop\n        /* \"#utility.yul\":5983:5984   */\n      0x01\n        /* \"#utility.yul\":5977:5981   */\n      dup3\n        /* \"#utility.yul\":5973:5985   */\n      and\n        /* \"#utility.yul\":6004:6022   */\n      dup1\n        /* \"#utility.yul\":5994:6075   */\n      tag_156\n      jumpi\n        /* \"#utility.yul\":6060:6064   */\n      0x7f\n        /* \"#utility.yul\":6052:6058   */\n      dup3\n        /* \"#utility.yul\":6048:6065   */\n      and\n        /* \"#utility.yul\":6038:6065   */\n      swap2\n      pop\n        /* \"#utility.yul\":5994:6075   */\n    tag_156:\n        /* \"#utility.yul\":6122:6124   */\n      0x20\n        /* \"#utility.yul\":6114:6120   */\n      dup3\n        /* \"#utility.yul\":6111:6125   */\n      lt\n        /* \"#utility.yul\":6091:6109   */\n      dup2\n        /* \"#utility.yul\":6088:6126   */\n      sub\n        /* \"#utility.yul\":6085:6169   */\n      tag_157\n      jumpi\n        /* \"#utility.yul\":6141:6159   */\n      tag_158\n      tag_72\n      jump\t// in\n    tag_158:\n        /* \"#utility.yul\":6085:6169   */\n    tag_157:\n        /* \"#utility.yul\":5906:6175   */\n      pop\n        /* \"#utility.yul\":5855:6175   */\n      swap2\n      swap1\n      pop\n      jump\t// out\n        /* \"#utility.yul\":6181:6322   */\n    tag_73:\n        /* \"#utility.yul\":6230:6234   */\n      0x00\n        /* \"#utility.yul\":6253:6256   */\n      dup2\n        /* \"#utility.yul\":6245:6256   */\n      swap1\n      pop\n        /* \"#utility.yul\":6276:6279   */\n      dup2\n        /* \"#utility.yul\":6273:6274   */\n      0x00\n        /* \"#utility.yul\":6266:6280   */\n      mstore\n        /* \"#utility.yul\":6310:6314   */\n      0x20\n        /* \"#utility.yul\":6307:6308   */\n      0x00\n        /* \"#utility.yul\":6297:6315   */\n      keccak256\n        /* \"#utility.yul\":6289:6315   */\n      swap1\n      pop\n        /* \"#utility.yul\":6181:6322   */\n      swap2\n      swap1\n      pop\n      jump\t// out\n        /* \"#utility.yul\":6328:6421   */\n    tag_74:\n        /* \"#utility.yul\":6365:6371   */\n      0x00\n        /* \"#utility.yul\":6412:6414   */\n      0x20\n        /* \"#utility.yul\":6407:6409   */\n      0x1f\n        /* \"#utility.yul\":6400:6405   */\n      dup4\n        /* \"#utility.yul\":6396:6410   */\n      add\n        /* \"#utility.yul\":6392:6415   */\n      div\n        /* \"#utility.yul\":6382:6415   */\n      swap1\n      pop\n        /* \"#utility.yul\":6328:6421   */\n      swap2\n      swap1\n      pop\n      jump\t// out\n        /* \"#utility.yul\":6427:6534   */\n    tag_75:\n        /* \"#utility.yul\":6471:6479   */\n      0x00\n        /* \"#utility.yul\":6521:6526   */\n      dup3\n        /* \"#utility.yul\":6515:6519   */\n      dup3\n        /* \"#utility.yul\":6511:6527   */\n      shl\n        /* \"#utility.yul\":6490:6527   */\n      swap1\n      pop\n        /* \"#utility.yul\":6427:6534   */\n      swap3\n      swap2\n      pop\n      pop\n      jump\t// out\n        /* \"#utility.yul\":6540:6933   */\n    tag_76:\n        /* \"#utility.yul\":6609:6615   */\n      0x00\n        /* \"#utility.yul\":6659:6660   */\n      0x08\n        /* \"#utility.yul\":6647:6657   */\n      dup4\n        /* \"#utility.yul\":6643:6661   */\n      mul\n        /* \"#utility.yul\":6682:6779   */\n      tag_163\n        /* \"#utility.yul\":6712:6778   */\n      0xffffffffffffffffffffffffffffffffffffffffffffffffffffffffffffffff\n        /* \"#utility.yul\":6701:6710   */\n      dup3\n        /* \"#utility.yul\":6682:6779   */\n      tag_75\n      jump\t// in\n    tag_163:\n        /* \"#utility.yul\":6800:6839   */\n      tag_164\n        /* \"#utility.yul\":6830:6838   */\n      dup7\n        /* \"#utility.yul\":6819:6828   */\n      dup4\n        /* \"#utility.yul\":6800:6839   */\n      tag_75\n      jump\t// in\n    tag_164:\n        /* \"#utility.yul\":6788:6839   */\n      swap6\n      pop\n        /* \"#utility.yul\":6872:6876   */\n      dup1\n        /* \"#utility.yul\":6868:6877   */\n      not\n        /* \"#utility.yul\":6861:6866   */\n      dup5\n        /* \"#utility.yul\":6857:6878   */\n      and\n        /* \"#utility.yul\":6848:6878   */\n      swap4\n      pop\n        /* \"#utility.yul\":6921:6925   */\n      dup1\n        /* \"#utility.yul\":6911:6919   */\n      dup7\n        /* \"#utility.yul\":6907:6926   */\n      and\n        /* \"#utility.yul\":6900:6905   */\n      dup5\n        /* \"#utility.yul\":6897:6927   */\n      or\n        /* \"#utility.yul\":6887:6927   */\n      swap3\n      pop\n        /* \"#utility.yul\":6616:6933   */\n      pop\n      pop\n        /* \"#utility.yul\":6540:6933   */\n      swap4\n      swap3\n      pop\n      pop\n      pop\n      jump\t// out\n        /* \"#utility.yul\":6939:7016   */\n    tag_77:\n        /* \"#utility.yul\":6976:6983   */\n      0x00\n        /* \"#utility.yul\":7005:7010   */\n      dup2\n        /* \"#utility.yul\":6994:7010   */\n      swap1\n      pop\n        /* \"#utility.yul\":6939:7016   */\n      swap2\n      swap1\n      pop\n      jump\t// out\n        /* \"#utility.yul\":7022:7082   */\n    tag_78:\n        /* \"#utility.yul\":7050:7053   */\n      0x00\n        /* \"#utility.yul\":7071:7076   */\n      dup2\n        /* \"#utility.yul\":7064:7076   */\n      swap1\n      pop\n        /* \"#utility.yul\":7022:7082   */\n      swap2\n      swap1\n      pop\n      jump\t// out\n        /* \"#utility.yul\":7088:7230   */\n    tag_79:\n        /* \"#utility.yul\":7138:7147   */\n      0x00\n        /* \"#utility.yul\":7171:7224   */\n      tag_168\n        /* \"#utility.yul\":7189:7223   */\n      tag_169\n        /* \"#utility.yul\":7198:7222   */\n      tag_170\n        /* \"#utility.yul\":7216:7221   */\n      dup5\n        /* \"#utility.yul\":7198:7222   */\n      tag_77\n      jump\t// in\n    tag_170:\n        /* \"#utility.yul\":7189:7223   */\n      tag_78\n      jump\t// in\n    tag_169:\n        /* \"#utility.yul\":7171:7224   */\n      tag_77\n      jump\t// in\n    tag_168:\n        /* \"#utility.yul\":7158:7224   */\n      swap1\n      pop\n        /* \"#utility.yul\":7088:7230   */\n      swap2\n      swap1\n      pop\n      jump\t// out\n        /* \"#utility.yul\":7236:7311   */\n    tag_80:\n        /* \"#utility.yul\":7279:7282   */\n      0x00\n        /* \"#utility.yul\":7300:7305   */\n      dup2\n        /* \"#utility.yul\":7293:7305   */\n      swap1\n      pop\n        /* \"#utility.yul\":7236:7311   */\n      swap2\n      swap1\n      pop\n      jump\t// out\n        /* \"#utility.yul\":7317:7586   */\n    tag_81:\n        /* \"#utility.yul\":7427:7466   */\n      tag_173\n        /* \"#utility.yul\":7458:7465   */\n      dup4\n        /* \"#utility.yul\":7427:7466   */\n      tag_79\n      jump\t// in\n    tag_173:\n        /* \"#utility.yul\":7488:7579   */\n      tag_174\n        /* \"#utility.yul\":7537:7578   */\n      tag_175\n        /* \"#utility.yul\":7561:7577   */\n      dup3\n        /* \"#utility.yul\":7537:7578   */\n      tag_80\n      jump\t// in\n    tag_175:\n        /* \"#utility.yul\":7529:7535   */\n      dup5\n        /* \"#utility.yul\":7522:7526   */\n      dup5\n        /* \"#utility.yul\":7516:7527   */\n      sload\n        /* \"#utility.yul\":7488:7579   */\n      tag_76\n      jump\t// in\n    tag_174:\n        /* \"#utility.yul\":7482:7486   */\n      dup3\n        /* \"#utility.yul\":7475:7580   */\n      sstore\n        /* \"#utility.yul\":7393:7586   */\n      pop\n        /* \"#utility.yul\":7317:7586   */\n      pop\n      pop\n      pop\n      jump\t// out\n        /* \"#utility.yul\":7592:7665   */\n    tag_82:\n        /* \"#utility.yul\":7637:7640   */\n      0x00\n        /* \"#utility.yul\":7658:7659   */\n      0x00\n        /* \"#utility.yul\":7651:7659   */\n      swap1\n      pop\n        /* \"#utility.yul\":7592:7665   */\n      swap1\n      jump\t// out\n        /* \"#utility.yul\":7671:7860   */\n    tag_83:\n        /* \"#utility.yul\":7748:7780   */\n      tag_178\n      tag_82\n      jump\t// in\n    tag_178:\n        /* \"#utility.yul\":7789:7854   */\n      tag_179\n        /* \"#utility.yul\":7847:7853   */\n      dup2\n        /* \"#utility.yul\":7839:7845   */\n      dup5\n        /* \"#utility.yul\":7833:7837   */\n      dup5\n        /* \"#utility.yul\":7789:7854   */\n      tag_81\n      jump\t// in\n    tag_179:\n        /* \"#utility.yul\":7724:7860   */\n      pop\n        /* \"#utility.yul\":7671:7860   */\n      pop\n      pop\n      jump\t// out\n        /* \"#utility.yul\":7866:8052   */\n    tag_84:\n        /* \"#utility.yul\":7926:8046   */\n    tag_181:\n        /* \"#utility.yul\":7943:7946   */\n      dup2\n        /* \"#utility.yul\":7936:7941   */\n      dup2\n        /* \"#utility.yul\":7933:7947   */\n      lt\n        /* \"#utility.yul\":7926:8046   */\n      iszero\n      tag_183\n      jumpi\n        /* \"#utility.yul\":7997:8036   */\n      tag_184\n        /* \"#utility.yul\":8034:8035   */\n      0x00\n        /* \"#utility.yul\":8027:8032   */\n      dup3\n        /* \"#utility.yul\":7997:8036   */\n      tag_83\n      jump\t// in\n    tag_184:\n        /* \"#utility.yul\":7970:7971   */\n      0x01\n        /* \"#utility.yul\":7963:7968   */\n      dup2\n        /* \"#utility.yul\":7959:7972   */\n      add\n        /* \"#utility.yul\":7950:7972   */\n      swap1\n      pop\n        /* \"#utility.yul\":7926:8046   */\n      jump(tag_181)\n    tag_183:\n        /* \"#utility.yul\":7866:8052   */\n      pop\n      pop\n      jump\t// out\n        /* \"#utility.yul\":8058:8601   */\n    tag_85:\n        /* \"#utility.yul\":8159:8161   */\n      0x1f\n        /* \"#utility.yul\":8154:8157   */\n      dup3\n        /* \"#utility.yul\":8151:8162   */\n      gt\n        /* \"#utility.yul\":8148:8594   */\n      iszero\n      tag_186\n      jumpi\n        /* \"#utility.yul\":8193:8231   */\n      tag_187\n        /* \"#utility.yul\":8225:8230   */\n      dup2\n        /* \"#utility.yul\":8193:8231   */\n      tag_73\n      jump\t// in\n    tag_187:\n        /* \"#utility.yul\":8277:8306   */\n      tag_188\n        /* \"#utility.yul\":8295:8305   */\n      dup5\n        /* \"#utility.yul\":8277:8306   */\n      tag_74\n      jump\t// in\n    tag_188:\n        /* \"#utility.yul\":8267:8275   */\n      dup2\n        /* \"#utility.yul\":8263:8307   */\n      add\n        /* \"#utility.yul\":8460:8462   */\n      0x20\n        /* \"#utility.yul\":8448:8458   */\n      dup6\n        /* \"#utility.yul\":8445:8463   */\n      lt\n        /* \"#utility.yul\":8442:8491   */\n      iszero\n      tag_189\n      jumpi\n        /* \"#utility.yul\":8481:8489   */\n      dup2\n        /* \"#utility.yul\":8466:8489   */\n      swap1\n      pop\n        /* \"#utility.yul\":8442:8491   */\n    tag_189:\n        /* \"#utility.yul\":8504:8584   */\n      tag_190\n        /* \"#utility.yul\":8560:8582   */\n      tag_191\n        /* \"#utility.yul\":8578:8581   */\n      dup6\n        /* \"#utility.yul\":8560:8582   */\n      tag_74\n      jump\t// in\n    tag_191:\n        /* \"#utility.yul\":8550:8558   */\n      dup4\n        /* \"#utility.yul\":8546:8583   */\n      add\n        /* \"#utility.yul\":8533:8544   */\n      dup3\n        /* \"#utility.yul\":8504:8584   */\n      tag_84\n      jump\t// in\n    tag_190:\n        /* \"#utility.yul\":8163:8594   */\n      pop\n      pop\n        /* \"#utility.yul\":8148:8594   */\n    tag_186:\n        /* \"#utility.yul\":8058:8601   */\n      pop\n      pop\n      pop\n      jump\t// out\n        /* \"#utility.yul\":8607:8724   */\n    tag_86:\n        /* \"#utility.yul\":8661:8669   */\n      0x00\n        /* \"#utility.yul\":8711:8716   */\n      dup3\n        /* \"#utility.yul\":8705:8709   */\n      dup3\n        /* \"#utility.yul\":8701:8717   */\n      shr\n        /* \"#utility.yul\":8680:8717   */\n      swap1\n      pop\n        /* \"#utility.yul\":8607:8724   */\n      swap3\n      swap2\n      pop\n      pop\n      jump\t// out\n        /* \"#utility.yul\":8730:8899   */\n    tag_87:\n        /* \"#utility.yul\":8774:8780   */\n      0x00\n        /* \"#utility.yul\":8807:8858   */\n      tag_194\n        /* \"#utility.yul\":8855:8856   */\n      0x00\n        /* \"#utility.yul\":8851:8857   */\n      not\n        /* \"#utility.yul\":8843:8848   */\n      dup5\n        /* \"#utility.yul\":8840:8841   */\n      0x08\n        /* \"#utility.yul\":8836:8849   */\n      mul\n        /* \"#utility.yul\":8807:8858   */\n      tag_86\n      jump\t// in\n    tag_194:\n        /* \"#utility.yul\":8803:8859   */\n      not\n        /* \"#utility.yul\":8888:8892   */\n      dup1\n        /* \"#utility.yul\":8882:8886   */\n      dup4\n        /* \"#utility.yul\":8878:8893   */\n      and\n        /* \"#utility.yul\":8868:8893   */\n      swap2\n      pop\n        /* \"#utility.yul\":8781:8899   */\n      pop\n        /* \"#utility.yul\":8730:8899   */\n      swap3\n      swap2\n      pop\n      pop\n      jump\t// out\n        /* \"#utility.yul\":8904:9199   */\n    tag_88:\n        /* \"#utility.yul\":8980:8984   */\n      0x00\n        /* \"#utility.yul\":9126:9155   */\n      tag_196\n        /* \"#utility.yul\":9151:9154   */\n      dup4\n        /* \"#utility.yul\":9145:9149   */\n      dup4\n        /* \"#utility.yul\":9126:9155   */\n      tag_87\n      jump\t// in\n    tag_196:\n        /* \"#utility.yul\":9118:9155   */\n      swap2\n      pop\n        /* \"#utility.yul\":9188:9191   */\n      dup3\n        /* \"#utility.yul\":9185:9186   */\n      0x02\n        /* \"#utility.yul\":9181:9192   */\n      mul\n        /* \"#utility.yul\":9175:9179   */\n      dup3\n        /* \"#utility.yul\":9172:9193   */\n      or\n        /* \"#utility.yul\":9164:9193   */\n      swap1\n      pop\n        /* \"#utility.yul\":8904:9199   */\n      swap3\n      swap2\n      pop\n      pop\n      jump\t// out\n        /* \"#utility.yul\":9204:10599   */\n    tag_42:\n        /* \"#utility.yul\":9321:9358   */\n      tag_198\n        /* \"#utility.yul\":9354:9357   */\n      dup3\n        /* \"#utility.yul\":9321:9358   */\n      tag_55\n      jump\t// in\n    tag_198:\n        /* \"#utility.yul\":9423:9441   */\n      0xffffffffffffffff\n        /* \"#utility.yul\":9415:9421   */\n      dup2\n        /* \"#utility.yul\":9412:9442   */\n      gt\n        /* \"#utility.yul\":9409:9465   */\n      iszero\n      tag_199\n      jumpi\n        /* \"#utility.yul\":9445:9463   */\n      tag_200\n      tag_65\n      jump\t// in\n    tag_200:\n        /* \"#utility.yul\":9409:9465   */\n    tag_199:\n        /* \"#utility.yul\":9489:9527   */\n      tag_201\n        /* \"#utility.yul\":9521:9525   */\n      dup3\n        /* \"#utility.yul\":9515:9526   */\n      sload\n        /* \"#utility.yul\":9489:9527   */\n      tag_34\n      jump\t// in\n    tag_201:\n        /* \"#utility.yul\":9574:9641   */\n      tag_202\n        /* \"#utility.yul\":9634:9640   */\n      dup3\n        /* \"#utility.yul\":9626:9632   */\n      dup3\n        /* \"#utility.yul\":9620:9624   */\n      dup6\n        /* \"#utility.yul\":9574:9641   */\n      tag_85\n      jump\t// in\n    tag_202:\n        /* \"#utility.yul\":9668:9669   */\n      0x00\n        /* \"#utility.yul\":9692:9696   */\n      0x20\n        /* \"#utility.yul\":9679:9696   */\n      swap1\n      pop\n        /* \"#utility.yul\":9724:9726   */\n      0x1f\n        /* \"#utility.yul\":9716:9722   */\n      dup4\n        /* \"#utility.yul\":9713:9727   */\n      gt\n        /* \"#utility.yul\":9741:9742   */\n      0x01\n        /* \"#utility.yul\":9736:10354   */\n      dup2\n      eq\n      tag_204\n      jumpi\n        /* \"#utility.yul\":10398:10399   */\n      0x00\n        /* \"#utility.yul\":10415:10421   */\n      dup5\n        /* \"#utility.yul\":10412:10489   */\n      iszero\n      tag_205\n      jumpi\n        /* \"#utility.yul\":10464:10473   */\n      dup3\n        /* \"#utility.yul\":10459:10462   */\n      dup8\n        /* \"#utility.yul\":10455:10474   */\n      add\n        /* \"#utility.yul\":10449:10475   */\n      mload\n        /* \"#utility.yul\":10440:10475   */\n      swap1\n      pop\n        /* \"#utility.yul\":10412:10489   */\n    tag_205:\n        /* \"#utility.yul\":10515:10582   */\n      tag_206\n        /* \"#utility.yul\":10575:10581   */\n      dup6\n        /* \"#utility.yul\":10568:10573   */\n      dup3\n        /* \"#utility.yul\":10515:10582   */\n      tag_88\n      jump\t// in\n    tag_206:\n        /* \"#utility.yul\":10509:10513   */\n      dup7\n        /* \"#utility.yul\":10502:10583   */\n      sstore\n        /* \"#utility.yul\":10371:10593   */\n      pop\n        /* \"#utility.yul\":9706:10593   */\n      jump(tag_203)\n        /* \"#utility.yul\":9736:10354   */\n    tag_204:\n        /* \"#utility.yul\":9788:9792   */\n      0x1f\n        /* \"#utility.yul\":9784:9793   */\n      not\n        /* \"#utility.yul\":9776:9782   */\n      dup5\n        /* \"#utility.yul\":9772:9794   */\n      and\n        /* \"#utility.yul\":9822:9859   */\n      tag_207\n        /* \"#utility.yul\":9854:9858   */\n      dup7\n        /* \"#utility.yul\":9822:9859   */\n      tag_73\n      jump\t// in\n    tag_207:\n        /* \"#utility.yul\":9881:9882   */\n      0x00\n        /* \"#utility.yul\":9895:10103   */\n    tag_208:\n        /* \"#utility.yul\":9909:9916   */\n      dup3\n        /* \"#utility.yul\":9906:9907   */\n      dup2\n        /* \"#utility.yul\":9903:9917   */\n      lt\n        /* \"#utility.yul\":9895:10103   */\n      iszero\n      tag_210\n      jumpi\n        /* \"#utility.yul\":9988:9997   */\n      dup5\n        /* \"#utility.yul\":9983:9986   */\n      dup10\n        /* \"#utility.yul\":9979:9998   */\n      add\n        /* \"#utility.yul\":9973:9999   */\n      mload\n        /* \"#utility.yul\":9965:9971   */\n      dup3\n        /* \"#utility.yul\":9958:10000   */\n      sstore\n        /* \"#utility.yul\":10039:10040   */\n      0x01\n        /* \"#utility.yul\":10031:10037   */\n      dup3\n        /* \"#utility.yul\":10027:10041   */\n      add\n        /* \"#utility.yul\":10017:10041   */\n      swap2\n      pop\n        /* \"#utility.yul\":10086:10088   */\n      0x20\n        /* \"#utility.yul\":10075:10084   */\n      dup6\n        /* \"#utility.yul\":10071:10089   */\n      add\n        /* \"#utility.yul\":10058:10089   */\n      swap5\n      pop\n        /* \"#utility.yul\":9932:9936   */\n      0x20\n        /* \"#utility.yul\":9929:9930   */\n      dup2\n        /* \"#utility.yul\":9925:9937   */\n      add\n        /* \"#utility.yul\":9920:9937   */\n      swap1\n      pop\n        /* \"#utility.yul\":9895:10103   */\n      jump(tag_208)\n    tag_210:\n        /* \"#utility.yul\":10131:10137   */\n      dup7\n        /* \"#utility.yul\":10122:10129   */\n      dup4\n        /* \"#utility.yul\":10119:10138   */\n      lt\n        /* \"#utility.yul\":10116:10295   */\n      iszero\n      tag_211\n      jumpi\n        /* \"#utility.yul\":10189:10198   */\n      dup5\n        /* \"#utility.yul\":10184:10187   */\n      dup10\n        /* \"#utility.yul\":10180:10199   */\n      add\n        /* \"#utility.yul\":10174:10200   */\n      mload\n        /* \"#utility.yul\":10232:10280   */\n      tag_212\n        /* \"#utility.yul\":10274:10278   */\n      0x1f\n        /* \"#utility.yul\":10266:10272   */\n      dup10\n        /* \"#utility.yul\":10262:10279   */\n      and\n        /* \"#utility.yul\":10251:10260   */\n      dup3\n        /* \"#utility.yul\":10232:10280   */\n      tag_87\n      jump\t// in\n    tag_212:\n        /* \"#utility.yul\":10224:10230   */\n      dup4\n        /* \"#utility.yul\":10217:10281   */\n      sstore\n        /* \"#utility.yul\":10139:10295   */\n      pop\n        /* \"#utility.yul\":10116:10295   */\n    tag_211:\n        /* \"#utility.yul\":10341:10342   */\n      0x01\n        /* \"#utility.yul\":10337:10338   */\n      0x02\n        /* \"#utility.yul\":10329:10335   */\n      dup9\n        /* \"#utility.yul\":10325:10339   */\n      mul\n        /* \"#utility.yul\":10321:10343   */\n      add\n        /* \"#utility.yul\":10315:10319   */\n      dup9\n        /* \"#utility.yul\":10308:10344   */\n      sstore\n        /* \"#utility.yul\":9743:10354   */\n      pop\n      pop\n      pop\n        /* \"#utility.yul\":9706:10593   */\n    tag_203:\n      pop\n        /* \"#utility.yul\":9296:10599   */\n      pop\n      pop\n      pop\n        /* \"#utility.yul\":9204:10599   */\n      pop\n      pop\n      jump\t// out\n\n    auxdata: 0xa26469706673582212202300cbc2a2dd4dfe683c0f3f19eb45baaa5ebfe92f13005b2c3871a79d76c36164736f6c634300081e0033\n}\n",
				"bytecode": {
					"linkReferences": {},
					"object": "608060405234801561000f575f5ffd5b506040518060400160405280600781526020017f54656368617261000000000000000000000000000000000000000000000000008152505f908161005391906102d0565b50603260015f6101000a8154816effffffffffffffffffffffffffffff0219169083600e0b6effffffffffffffffffffffffffffff16021790555061039f565b5f81519050919050565b7f4e487b71000000000000000000000000000000000000000000000000000000005f52604160045260245ffd5b7f4e487b71000000000000000000000000000000000000000000000000000000005f52602260045260245ffd5b5f600282049050600182168061010e57607f821691505b602082108103610121576101206100ca565b5b50919050565b5f819050815f5260205f209050919050565b5f6020601f8301049050919050565b5f82821b905092915050565b5f600883026101837fffffffffffffffffffffffffffffffffffffffffffffffffffffffffffffffff82610148565b61018d8683610148565b95508019841693508086168417925050509392505050565b5f819050919050565b5f819050919050565b5f6101d16101cc6101c7846101a5565b6101ae565b6101a5565b9050919050565b5f819050919050565b6101ea836101b7565b6101fe6101f6826101d8565b848454610154565b825550505050565b5f5f905090565b610215610206565b6102208184846101e1565b505050565b5b81811015610243576102385f8261020d565b600181019050610226565b5050565b601f8211156102885761025981610127565b61026284610139565b81016020851015610271578190505b61028561027d85610139565b830182610225565b50505b505050565b5f82821c905092915050565b5f6102a85f198460080261028d565b1980831691505092915050565b5f6102c08383610299565b9150826002028217905092915050565b6102d982610093565b67ffffffffffffffff8111156102f2576102f161009d565b5b6102fc82546100f7565b610307828285610247565b5f60209050601f831160018114610338575f8415610326578287015190505b61033085826102b5565b865550610397565b601f19841661034686610127565b5f5b8281101561036d57848901518255600182019150602085019450602081019050610348565b8683101561038a5784890151610386601f891682610299565b8355505b6001600288020188555050505b505050505050565b61087f806103ac5f395ff3fe608060405234801561000f575f5ffd5b5060043610610060575f3560e01c80632928b2a2146100645780634f5fc3c1146100805780635277c08d1461009e578063699450e8146100bc578063988f35eb146100da578063de219836146100f6575b5f5ffd5b61007e600480360381019061007991906102ed565b610114565b005b610088610150565b6040516100959190610388565b60405180910390f35b6100a66101db565b6040516100b391906103c0565b60405180910390f35b6100c46101f3565b6040516100d191906103e8565b60405180910390f35b6100f460048036038101906100ef919061052d565b610205565b005b6100fe610217565b60405161010b9190610388565b60405180910390f35b8060015f6101000a8154816effffffffffffffffffffffffffffff0219169083600e0b6effffffffffffffffffffffffffffff16021790555050565b5f805461015c906105a1565b80601f0160208091040260200160405190810160405280929190818152602001828054610188906105a1565b80156101d35780601f106101aa576101008083540402835291602001916101d3565b820191905f5260205f20905b8154815290600101906020018083116101b657829003601f168201915b505050505081565b5f60015f9054906101000a9004600e0b600e0b905090565b60015f9054906101000a9004600e0b81565b805f9081610213919061077a565b5050565b60605f8054610225906105a1565b80601f0160208091040260200160405190810160405280929190818152602001828054610251906105a1565b801561029c5780601f106102735761010080835404028352916020019161029c565b820191905f5260205f20905b81548152906001019060200180831161027f57829003601f168201915b5050505050905090565b5f604051905090565b5f5ffd5b5f5ffd5b5f81600e0b9050919050565b6102cc816102b7565b81146102d6575f5ffd5b50565b5f813590506102e7816102c3565b92915050565b5f60208284031215610302576103016102af565b5b5f61030f848285016102d9565b91505092915050565b5f81519050919050565b5f82825260208201905092915050565b8281835e5f83830152505050565b5f601f19601f8301169050919050565b5f61035a82610318565b6103648185610322565b9350610374818560208601610332565b61037d81610340565b840191505092915050565b5f6020820190508181035f8301526103a08184610350565b905092915050565b5f819050919050565b6103ba816103a8565b82525050565b5f6020820190506103d35f8301846103b1565b92915050565b6103e2816102b7565b82525050565b5f6020820190506103fb5f8301846103d9565b92915050565b5f5ffd5b5f5ffd5b7f4e487b71000000000000000000000000000000000000000000000000000000005f52604160045260245ffd5b61043f82610340565b810181811067ffffffffffffffff8211171561045e5761045d610409565b5b80604052505050565b5f6104706102a6565b905061047c8282610436565b919050565b5f67ffffffffffffffff82111561049b5761049a610409565b5b6104a482610340565b9050602081019050919050565b828183375f83830152505050565b5f6104d16104cc84610481565b610467565b9050828152602081018484840111156104ed576104ec610405565b5b6104f88482856104b1565b509392505050565b5f82601f83011261051457610513610401565b5b81356105248482602086016104bf565b91505092915050565b5f60208284031215610542576105416102af565b5b5f82013567ffffffffffffffff81111561055f5761055e6102b3565b5b61056b84828501610500565b91505092915050565b7f4e487b71000000000000000000000000000000000000000000000000000000005f52602260045260245ffd5b5f60028204905060018216806105b857607f821691505b6020821081036105cb576105ca610574565b5b50919050565b5f819050815f5260205f209050919050565b5f6020601f8301049050919050565b5f82821b905092915050565b5f6008830261062d7fffffffffffffffffffffffffffffffffffffffffffffffffffffffffffffffff826105f2565b61063786836105f2565b95508019841693508086168417925050509392505050565b5f819050919050565b5f819050919050565b5f61067b6106766106718461064f565b610658565b61064f565b9050919050565b5f819050919050565b61069483610661565b6106a86106a082610682565b8484546105fe565b825550505050565b5f5f905090565b6106bf6106b0565b6106ca81848461068b565b505050565b5b818110156106ed576106e25f826106b7565b6001810190506106d0565b5050565b601f82111561073257610703816105d1565b61070c846105e3565b8101602085101561071b578190505b61072f610727856105e3565b8301826106cf565b50505b505050565b5f82821c905092915050565b5f6107525f1984600802610737565b1980831691505092915050565b5f61076a8383610743565b9150826002028217905092915050565b61078382610318565b67ffffffffffffffff81111561079c5761079b610409565b5b6107a682546105a1565b6107b18282856106f1565b5f60209050601f8311600181146107e2575f84156107d0578287015190505b6107da858261075f565b865550610841565b601f1984166107f0866105d1565b5f5b82811015610817578489015182556001820191506020850194506020810190506107f2565b868310156108345784890151610830601f891682610743565b8355505b6001600288020188555050505b50505050505056fea26469706673582212202300cbc2a2dd4dfe683c0f3f19eb45baaa5ebfe92f13005b2c3871a79d76c36164736f6c634300081e0033",
					"opcodes": "PUSH1 0x80 PUSH1 0x40 MSTORE CALLVALUE DUP1 ISZERO PUSH2 0xF JUMPI PUSH0 PUSH0 REVERT JUMPDEST POP PUSH1 0x40 MLOAD DUP1 PUSH1 0x40 ADD PUSH1 0x40 MSTORE DUP1 PUSH1 0x7 DUP2 MSTORE PUSH1 0x20 ADD PUSH32 0x5465636861726100000000000000000000000000000000000000000000000000 DUP2 MSTORE POP PUSH0 SWAP1 DUP2 PUSH2 0x53 SWAP2 SWAP1 PUSH2 0x2D0 JUMP JUMPDEST POP PUSH1 0x32 PUSH1 0x1 PUSH0 PUSH2 0x100 EXP DUP2 SLOAD DUP2 PUSH15 0xFFFFFFFFFFFFFFFFFFFFFFFFFFFFFF MUL NOT AND SWAP1 DUP4 PUSH1 0xE SIGNEXTEND PUSH15 0xFFFFFFFFFFFFFFFFFFFFFFFFFFFFFF AND MUL OR SWAP1 SSTORE POP PUSH2 0x39F JUMP JUMPDEST PUSH0 DUP2 MLOAD SWAP1 POP SWAP2 SWAP1 POP JUMP JUMPDEST PUSH32 0x4E487B7100000000000000000000000000000000000000000000000000000000 PUSH0 MSTORE PUSH1 0x41 PUSH1 0x4 MSTORE PUSH1 0x24 PUSH0 REVERT JUMPDEST PUSH32 0x4E487B7100000000000000000000000000000000000000000000000000000000 PUSH0 MSTORE PUSH1 0x22 PUSH1 0x4 MSTORE PUSH1 0x24 PUSH0 REVERT JUMPDEST PUSH0 PUSH1 0x2 DUP3 DIV SWAP1 POP PUSH1 0x1 DUP3 AND DUP1 PUSH2 0x10E JUMPI PUSH1 0x7F DUP3 AND SWAP2 POP JUMPDEST PUSH1 0x20 DUP3 LT DUP2 SUB PUSH2 0x121 JUMPI PUSH2 0x120 PUSH2 0xCA JUMP JUMPDEST JUMPDEST POP SWAP2 SWAP1 POP JUMP JUMPDEST PUSH0 DUP2 SWAP1 POP DUP2 PUSH0 MSTORE PUSH1 0x20 PUSH0 KECCAK256 SWAP1 POP SWAP2 SWAP1 POP JUMP JUMPDEST PUSH0 PUSH1 0x20 PUSH1 0x1F DUP4 ADD DIV SWAP1 POP SWAP2 SWAP1 POP JUMP JUMPDEST PUSH0 DUP3 DUP3 SHL SWAP1 POP SWAP3 SWAP2 POP POP JUMP JUMPDEST PUSH0 PUSH1 0x8 DUP4 MUL PUSH2 0x183 PUSH32 0xFFFFFFFFFFFFFFFFFFFFFFFFFFFFFFFFFFFFFFFFFFFFFFFFFFFFFFFFFFFFFFFF DUP3 PUSH2 0x148 JUMP JUMPDEST PUSH2 0x18D DUP7 DUP4 PUSH2 0x148 JUMP JUMPDEST SWAP6 POP DUP1 NOT DUP5 AND SWAP4 POP DUP1 DUP7 AND DUP5 OR SWAP3 POP POP POP SWAP4 SWAP3 POP POP POP JUMP JUMPDEST PUSH0 DUP2 SWAP1 POP SWAP2 SWAP1 POP JUMP JUMPDEST PUSH0 DUP2 SWAP1 POP SWAP2 SWAP1 POP JUMP JUMPDEST PUSH0 PUSH2 0x1D1 PUSH2 0x1CC PUSH2 0x1C7 DUP5 PUSH2 0x1A5 JUMP JUMPDEST PUSH2 0x1AE JUMP JUMPDEST PUSH2 0x1A5 JUMP JUMPDEST SWAP1 POP SWAP2 SWAP1 POP JUMP JUMPDEST PUSH0 DUP2 SWAP1 POP SWAP2 SWAP1 POP JUMP JUMPDEST PUSH2 0x1EA DUP4 PUSH2 0x1B7 JUMP JUMPDEST PUSH2 0x1FE PUSH2 0x1F6 DUP3 PUSH2 0x1D8 JUMP JUMPDEST DUP5 DUP5 SLOAD PUSH2 0x154 JUMP JUMPDEST DUP3 SSTORE POP POP POP POP JUMP JUMPDEST PUSH0 PUSH0 SWAP1 POP SWAP1 JUMP JUMPDEST PUSH2 0x215 PUSH2 0x206 JUMP JUMPDEST PUSH2 0x220 DUP2 DUP5 DUP5 PUSH2 0x1E1 JUMP JUMPDEST POP POP POP JUMP JUMPDEST JUMPDEST DUP2 DUP2 LT ISZERO PUSH2 0x243 JUMPI PUSH2 0x238 PUSH0 DUP3 PUSH2 0x20D JUMP JUMPDEST PUSH1 0x1 DUP2 ADD SWAP1 POP PUSH2 0x226 JUMP JUMPDEST POP POP JUMP JUMPDEST PUSH1 0x1F DUP3 GT ISZERO PUSH2 0x288 JUMPI PUSH2 0x259 DUP2 PUSH2 0x127 JUMP JUMPDEST PUSH2 0x262 DUP5 PUSH2 0x139 JUMP JUMPDEST DUP2 ADD PUSH1 0x20 DUP6 LT ISZERO PUSH2 0x271 JUMPI DUP2 SWAP1 POP JUMPDEST PUSH2 0x285 PUSH2 0x27D DUP6 PUSH2 0x139 JUMP JUMPDEST DUP4 ADD DUP3 PUSH2 0x225 JUMP JUMPDEST POP POP JUMPDEST POP POP POP JUMP JUMPDEST PUSH0 DUP3 DUP3 SHR SWAP1 POP SWAP3 SWAP2 POP POP JUMP JUMPDEST PUSH0 PUSH2 0x2A8 PUSH0 NOT DUP5 PUSH1 0x8 MUL PUSH2 0x28D JUMP JUMPDEST NOT DUP1 DUP4 AND SWAP2 POP POP SWAP3 SWAP2 POP POP JUMP JUMPDEST PUSH0 PUSH2 0x2C0 DUP4 DUP4 PUSH2 0x299 JUMP JUMPDEST SWAP2 POP DUP3 PUSH1 0x2 MUL DUP3 OR SWAP1 POP SWAP3 SWAP2 POP POP JUMP JUMPDEST PUSH2 0x2D9 DUP3 PUSH2 0x93 JUMP JUMPDEST PUSH8 0xFFFFFFFFFFFFFFFF DUP2 GT ISZERO PUSH2 0x2F2 JUMPI PUSH2 0x2F1 PUSH2 0x9D JUMP JUMPDEST JUMPDEST PUSH2 0x2FC DUP3 SLOAD PUSH2 0xF7 JUMP JUMPDEST PUSH2 0x307 DUP3 DUP3 DUP6 PUSH2 0x247 JUMP JUMPDEST PUSH0 PUSH1 0x20 SWAP1 POP PUSH1 0x1F DUP4 GT PUSH1 0x1 DUP2 EQ PUSH2 0x338 JUMPI PUSH0 DUP5 ISZERO PUSH2 0x326 JUMPI DUP3 DUP8 ADD MLOAD SWAP1 POP JUMPDEST PUSH2 0x330 DUP6 DUP3 PUSH2 0x2B5 JUMP JUMPDEST DUP7 SSTORE POP PUSH2 0x397 JUMP JUMPDEST PUSH1 0x1F NOT DUP5 AND PUSH2 0x346 DUP7 PUSH2 0x127 JUMP JUMPDEST PUSH0 JUMPDEST DUP3 DUP2 LT ISZERO PUSH2 0x36D JUMPI DUP5 DUP10 ADD MLOAD DUP3 SSTORE PUSH1 0x1 DUP3 ADD SWAP2 POP PUSH1 0x20 DUP6 ADD SWAP5 POP PUSH1 0x20 DUP2 ADD SWAP1 POP PUSH2 0x348 JUMP JUMPDEST DUP7 DUP4 LT ISZERO PUSH2 0x38A JUMPI DUP5 DUP10 ADD MLOAD PUSH2 0x386 PUSH1 0x1F DUP10 AND DUP3 PUSH2 0x299 JUMP JUMPDEST DUP4 SSTORE POP JUMPDEST PUSH1 0x1 PUSH1 0x2 DUP9 MUL ADD DUP9 SSTORE POP POP POP JUMPDEST POP POP POP POP POP POP JUMP JUMPDEST PUSH2 0x87F DUP1 PUSH2 0x3AC PUSH0 CODECOPY PUSH0 RETURN INVALID PUSH1 0x80 PUSH1 0x40 MSTORE CALLVALUE DUP1 ISZERO PUSH2 0xF JUMPI PUSH0 PUSH0 REVERT JUMPDEST POP PUSH1 0x4 CALLDATASIZE LT PUSH2 0x60 JUMPI PUSH0 CALLDATALOAD PUSH1 0xE0 SHR DUP1 PUSH4 0x2928B2A2 EQ PUSH2 0x64 JUMPI DUP1 PUSH4 0x4F5FC3C1 EQ PUSH2 0x80 JUMPI DUP1 PUSH4 0x5277C08D EQ PUSH2 0x9E JUMPI DUP1 PUSH4 0x699450E8 EQ PUSH2 0xBC JUMPI DUP1 PUSH4 0x988F35EB EQ PUSH2 0xDA JUMPI DUP1 PUSH4 0xDE219836 EQ PUSH2 0xF6 JUMPI JUMPDEST PUSH0 PUSH0 REVERT JUMPDEST PUSH2 0x7E PUSH1 0x4 DUP1 CALLDATASIZE SUB DUP2 ADD SWAP1 PUSH2 0x79 SWAP2 SWAP1 PUSH2 0x2ED JUMP JUMPDEST PUSH2 0x114 JUMP JUMPDEST STOP JUMPDEST PUSH2 0x88 PUSH2 0x150 JUMP JUMPDEST PUSH1 0x40 MLOAD PUSH2 0x95 SWAP2 SWAP1 PUSH2 0x388 JUMP JUMPDEST PUSH1 0x40 MLOAD DUP1 SWAP2 SUB SWAP1 RETURN JUMPDEST PUSH2 0xA6 PUSH2 0x1DB JUMP JUMPDEST PUSH1 0x40 MLOAD PUSH2 0xB3 SWAP2 SWAP1 PUSH2 0x3C0 JUMP JUMPDEST PUSH1 0x40 MLOAD DUP1 SWAP2 SUB SWAP1 RETURN JUMPDEST PUSH2 0xC4 PUSH2 0x1F3 JUMP JUMPDEST PUSH1 0x40 MLOAD PUSH2 0xD1 SWAP2 SWAP1 PUSH2 0x3E8 JUMP JUMPDEST PUSH1 0x40 MLOAD DUP1 SWAP2 SUB SWAP1 RETURN JUMPDEST PUSH2 0xF4 PUSH1 0x4 DUP1 CALLDATASIZE SUB DUP2 ADD SWAP1 PUSH2 0xEF SWAP2 SWAP1 PUSH2 0x52D JUMP JUMPDEST PUSH2 0x205 JUMP JUMPDEST STOP JUMPDEST PUSH2 0xFE PUSH2 0x217 JUMP JUMPDEST PUSH1 0x40 MLOAD PUSH2 0x10B SWAP2 SWAP1 PUSH2 0x388 JUMP JUMPDEST PUSH1 0x40 MLOAD DUP1 SWAP2 SUB SWAP1 RETURN JUMPDEST DUP1 PUSH1 0x1 PUSH0 PUSH2 0x100 EXP DUP2 SLOAD DUP2 PUSH15 0xFFFFFFFFFFFFFFFFFFFFFFFFFFFFFF MUL NOT AND SWAP1 DUP4 PUSH1 0xE SIGNEXTEND PUSH15 0xFFFFFFFFFFFFFFFFFFFFFFFFFFFFFF AND MUL OR SWAP1 SSTORE POP POP JUMP JUMPDEST PUSH0 DUP1 SLOAD PUSH2 0x15C SWAP1 PUSH2 0x5A1 JUMP JUMPDEST DUP1 PUSH1 0x1F ADD PUSH1 0x20 DUP1 SWAP2 DIV MUL PUSH1 0x20 ADD PUSH1 0x40 MLOAD SWAP1 DUP2 ADD PUSH1 0x40 MSTORE DUP1 SWAP3 SWAP2 SWAP1 DUP2 DUP2 MSTORE PUSH1 0x20 ADD DUP3 DUP1 SLOAD PUSH2 0x188 SWAP1 PUSH2 0x5A1 JUMP JUMPDEST DUP1 ISZERO PUSH2 0x1D3 JUMPI DUP1 PUSH1 0x1F LT PUSH2 0x1AA JUMPI PUSH2 0x100 DUP1 DUP4 SLOAD DIV MUL DUP4 MSTORE SWAP2 PUSH1 0x20 ADD SWAP2 PUSH2 0x1D3 JUMP JUMPDEST DUP3 ADD SWAP2 SWAP1 PUSH0 MSTORE PUSH1 0x20 PUSH0 KECCAK256 SWAP1 JUMPDEST DUP2 SLOAD DUP2 MSTORE SWAP1 PUSH1 0x1 ADD SWAP1 PUSH1 0x20 ADD DUP1 DUP4 GT PUSH2 0x1B6 JUMPI DUP3 SWAP1 SUB PUSH1 0x1F AND DUP3 ADD SWAP2 JUMPDEST POP POP POP POP POP DUP2 JUMP JUMPDEST PUSH0 PUSH1 0x1 PUSH0 SWAP1 SLOAD SWAP1 PUSH2 0x100 EXP SWAP1 DIV PUSH1 0xE SIGNEXTEND PUSH1 0xE SIGNEXTEND SWAP1 POP SWAP1 JUMP JUMPDEST PUSH1 0x1 PUSH0 SWAP1 SLOAD SWAP1 PUSH2 0x100 EXP SWAP1 DIV PUSH1 0xE SIGNEXTEND DUP2 JUMP JUMPDEST DUP1 PUSH0 SWAP1 DUP2 PUSH2 0x213 SWAP2 SWAP1 PUSH2 0x77A JUMP JUMPDEST POP POP JUMP JUMPDEST PUSH1 0x60 PUSH0 DUP1 SLOAD PUSH2 0x225 SWAP1 PUSH2 0x5A1 JUMP JUMPDEST DUP1 PUSH1 0x1F ADD PUSH1 0x20 DUP1 SWAP2 DIV MUL PUSH1 0x20 ADD PUSH1 0x40 MLOAD SWAP1 DUP2 ADD PUSH1 0x40 MSTORE DUP1 SWAP3 SWAP2 SWAP1 DUP2 DUP2 MSTORE PUSH1 0x20 ADD DUP3 DUP1 SLOAD PUSH2 0x251 SWAP1 PUSH2 0x5A1 JUMP JUMPDEST DUP1 ISZERO PUSH2 0x29C JUMPI DUP1 PUSH1 0x1F LT PUSH2 0x273 JUMPI PUSH2 0x100 DUP1 DUP4 SLOAD DIV MUL DUP4 MSTORE SWAP2 PUSH1 0x20 ADD SWAP2 PUSH2 0x29C JUMP JUMPDEST DUP3 ADD SWAP2 SWAP1 PUSH0 MSTORE PUSH1 0x20 PUSH0 KECCAK256 SWAP1 JUMPDEST DUP2 SLOAD DUP2 MSTORE SWAP1 PUSH1 0x1 ADD SWAP1 PUSH1 0x20 ADD DUP1 DUP4 GT PUSH2 0x27F JUMPI DUP3 SWAP1 SUB PUSH1 0x1F AND DUP3 ADD SWAP2 JUMPDEST POP POP POP POP POP SWAP1 POP SWAP1 JUMP JUMPDEST PUSH0 PUSH1 0x40 MLOAD SWAP1 POP SWAP1 JUMP JUMPDEST PUSH0 PUSH0 REVERT JUMPDEST PUSH0 PUSH0 REVERT JUMPDEST PUSH0 DUP2 PUSH1 0xE SIGNEXTEND SWAP1 POP SWAP2 SWAP1 POP JUMP JUMPDEST PUSH2 0x2CC DUP2 PUSH2 0x2B7 JUMP JUMPDEST DUP2 EQ PUSH2 0x2D6 JUMPI PUSH0 PUSH0 REVERT JUMPDEST POP JUMP JUMPDEST PUSH0 DUP2 CALLDATALOAD SWAP1 POP PUSH2 0x2E7 DUP2 PUSH2 0x2C3 JUMP JUMPDEST SWAP3 SWAP2 POP POP JUMP JUMPDEST PUSH0 PUSH1 0x20 DUP3 DUP5 SUB SLT ISZERO PUSH2 0x302 JUMPI PUSH2 0x301 PUSH2 0x2AF JUMP JUMPDEST JUMPDEST PUSH0 PUSH2 0x30F DUP5 DUP3 DUP6 ADD PUSH2 0x2D9 JUMP JUMPDEST SWAP2 POP POP SWAP3 SWAP2 POP POP JUMP JUMPDEST PUSH0 DUP2 MLOAD SWAP1 POP SWAP2 SWAP1 POP JUMP JUMPDEST PUSH0 DUP3 DUP3 MSTORE PUSH1 0x20 DUP3 ADD SWAP1 POP SWAP3 SWAP2 POP POP JUMP JUMPDEST DUP3 DUP2 DUP4 MCOPY PUSH0 DUP4 DUP4 ADD MSTORE POP POP POP JUMP JUMPDEST PUSH0 PUSH1 0x1F NOT PUSH1 0x1F DUP4 ADD AND SWAP1 POP SWAP2 SWAP1 POP JUMP JUMPDEST PUSH0 PUSH2 0x35A DUP3 PUSH2 0x318 JUMP JUMPDEST PUSH2 0x364 DUP2 DUP6 PUSH2 0x322 JUMP JUMPDEST SWAP4 POP PUSH2 0x374 DUP2 DUP6 PUSH1 0x20 DUP7 ADD PUSH2 0x332 JUMP JUMPDEST PUSH2 0x37D DUP2 PUSH2 0x340 JUMP JUMPDEST DUP5 ADD SWAP2 POP POP SWAP3 SWAP2 POP POP JUMP JUMPDEST PUSH0 PUSH1 0x20 DUP3 ADD SWAP1 POP DUP2 DUP2 SUB PUSH0 DUP4 ADD MSTORE PUSH2 0x3A0 DUP2 DUP5 PUSH2 0x350 JUMP JUMPDEST SWAP1 POP SWAP3 SWAP2 POP POP JUMP JUMPDEST PUSH0 DUP2 SWAP1 POP SWAP2 SWAP1 POP JUMP JUMPDEST PUSH2 0x3BA DUP2 PUSH2 0x3A8 JUMP JUMPDEST DUP3 MSTORE POP POP JUMP JUMPDEST PUSH0 PUSH1 0x20 DUP3 ADD SWAP1 POP PUSH2 0x3D3 PUSH0 DUP4 ADD DUP5 PUSH2 0x3B1 JUMP JUMPDEST SWAP3 SWAP2 POP POP JUMP JUMPDEST PUSH2 0x3E2 DUP2 PUSH2 0x2B7 JUMP JUMPDEST DUP3 MSTORE POP POP JUMP JUMPDEST PUSH0 PUSH1 0x20 DUP3 ADD SWAP1 POP PUSH2 0x3FB PUSH0 DUP4 ADD DUP5 PUSH2 0x3D9 JUMP JUMPDEST SWAP3 SWAP2 POP POP JUMP JUMPDEST PUSH0 PUSH0 REVERT JUMPDEST PUSH0 PUSH0 REVERT JUMPDEST PUSH32 0x4E487B7100000000000000000000000000000000000000000000000000000000 PUSH0 MSTORE PUSH1 0x41 PUSH1 0x4 MSTORE PUSH1 0x24 PUSH0 REVERT JUMPDEST PUSH2 0x43F DUP3 PUSH2 0x340 JUMP JUMPDEST DUP2 ADD DUP2 DUP2 LT PUSH8 0xFFFFFFFFFFFFFFFF DUP3 GT OR ISZERO PUSH2 0x45E JUMPI PUSH2 0x45D PUSH2 0x409 JUMP JUMPDEST JUMPDEST DUP1 PUSH1 0x40 MSTORE POP POP POP JUMP JUMPDEST PUSH0 PUSH2 0x470 PUSH2 0x2A6 JUMP JUMPDEST SWAP1 POP PUSH2 0x47C DUP3 DUP3 PUSH2 0x436 JUMP JUMPDEST SWAP2 SWAP1 POP JUMP JUMPDEST PUSH0 PUSH8 0xFFFFFFFFFFFFFFFF DUP3 GT ISZERO PUSH2 0x49B JUMPI PUSH2 0x49A PUSH2 0x409 JUMP JUMPDEST JUMPDEST PUSH2 0x4A4 DUP3 PUSH2 0x340 JUMP JUMPDEST SWAP1 POP PUSH1 0x20 DUP2 ADD SWAP1 POP SWAP2 SWAP1 POP JUMP JUMPDEST DUP3 DUP2 DUP4 CALLDATACOPY PUSH0 DUP4 DUP4 ADD MSTORE POP POP POP JUMP JUMPDEST PUSH0 PUSH2 0x4D1 PUSH2 0x4CC DUP5 PUSH2 0x481 JUMP JUMPDEST PUSH2 0x467 JUMP JUMPDEST SWAP1 POP DUP3 DUP2 MSTORE PUSH1 0x20 DUP2 ADD DUP5 DUP5 DUP5 ADD GT ISZERO PUSH2 0x4ED JUMPI PUSH2 0x4EC PUSH2 0x405 JUMP JUMPDEST JUMPDEST PUSH2 0x4F8 DUP5 DUP3 DUP6 PUSH2 0x4B1 JUMP JUMPDEST POP SWAP4 SWAP3 POP POP POP JUMP JUMPDEST PUSH0 DUP3 PUSH1 0x1F DUP4 ADD SLT PUSH2 0x514 JUMPI PUSH2 0x513 PUSH2 0x401 JUMP JUMPDEST JUMPDEST DUP2 CALLDATALOAD PUSH2 0x524 DUP5 DUP3 PUSH1 0x20 DUP7 ADD PUSH2 0x4BF JUMP JUMPDEST SWAP2 POP POP SWAP3 SWAP2 POP POP JUMP JUMPDEST PUSH0 PUSH1 0x20 DUP3 DUP5 SUB SLT ISZERO PUSH2 0x542 JUMPI PUSH2 0x541 PUSH2 0x2AF JUMP JUMPDEST JUMPDEST PUSH0 DUP3 ADD CALLDATALOAD PUSH8 0xFFFFFFFFFFFFFFFF DUP2 GT ISZERO PUSH2 0x55F JUMPI PUSH2 0x55E PUSH2 0x2B3 JUMP JUMPDEST JUMPDEST PUSH2 0x56B DUP5 DUP3 DUP6 ADD PUSH2 0x500 JUMP JUMPDEST SWAP2 POP POP SWAP3 SWAP2 POP POP JUMP JUMPDEST PUSH32 0x4E487B7100000000000000000000000000000000000000000000000000000000 PUSH0 MSTORE PUSH1 0x22 PUSH1 0x4 MSTORE PUSH1 0x24 PUSH0 REVERT JUMPDEST PUSH0 PUSH1 0x2 DUP3 DIV SWAP1 POP PUSH1 0x1 DUP3 AND DUP1 PUSH2 0x5B8 JUMPI PUSH1 0x7F DUP3 AND SWAP2 POP JUMPDEST PUSH1 0x20 DUP3 LT DUP2 SUB PUSH2 0x5CB JUMPI PUSH2 0x5CA PUSH2 0x574 JUMP JUMPDEST JUMPDEST POP SWAP2 SWAP1 POP JUMP JUMPDEST PUSH0 DUP2 SWAP1 POP DUP2 PUSH0 MSTORE PUSH1 0x20 PUSH0 KECCAK256 SWAP1 POP SWAP2 SWAP1 POP JUMP JUMPDEST PUSH0 PUSH1 0x20 PUSH1 0x1F DUP4 ADD DIV SWAP1 POP SWAP2 SWAP1 POP JUMP JUMPDEST PUSH0 DUP3 DUP3 SHL SWAP1 POP SWAP3 SWAP2 POP POP JUMP JUMPDEST PUSH0 PUSH1 0x8 DUP4 MUL PUSH2 0x62D PUSH32 0xFFFFFFFFFFFFFFFFFFFFFFFFFFFFFFFFFFFFFFFFFFFFFFFFFFFFFFFFFFFFFFFF DUP3 PUSH2 0x5F2 JUMP JUMPDEST PUSH2 0x637 DUP7 DUP4 PUSH2 0x5F2 JUMP JUMPDEST SWAP6 POP DUP1 NOT DUP5 AND SWAP4 POP DUP1 DUP7 AND DUP5 OR SWAP3 POP POP POP SWAP4 SWAP3 POP POP POP JUMP JUMPDEST PUSH0 DUP2 SWAP1 POP SWAP2 SWAP1 POP JUMP JUMPDEST PUSH0 DUP2 SWAP1 POP SWAP2 SWAP1 POP JUMP JUMPDEST PUSH0 PUSH2 0x67B PUSH2 0x676 PUSH2 0x671 DUP5 PUSH2 0x64F JUMP JUMPDEST PUSH2 0x658 JUMP JUMPDEST PUSH2 0x64F JUMP JUMPDEST SWAP1 POP SWAP2 SWAP1 POP JUMP JUMPDEST PUSH0 DUP2 SWAP1 POP SWAP2 SWAP1 POP JUMP JUMPDEST PUSH2 0x694 DUP4 PUSH2 0x661 JUMP JUMPDEST PUSH2 0x6A8 PUSH2 0x6A0 DUP3 PUSH2 0x682 JUMP JUMPDEST DUP5 DUP5 SLOAD PUSH2 0x5FE JUMP JUMPDEST DUP3 SSTORE POP POP POP POP JUMP JUMPDEST PUSH0 PUSH0 SWAP1 POP SWAP1 JUMP JUMPDEST PUSH2 0x6BF PUSH2 0x6B0 JUMP JUMPDEST PUSH2 0x6CA DUP2 DUP5 DUP5 PUSH2 0x68B JUMP JUMPDEST POP POP POP JUMP JUMPDEST JUMPDEST DUP2 DUP2 LT ISZERO PUSH2 0x6ED JUMPI PUSH2 0x6E2 PUSH0 DUP3 PUSH2 0x6B7 JUMP JUMPDEST PUSH1 0x1 DUP2 ADD SWAP1 POP PUSH2 0x6D0 JUMP JUMPDEST POP POP JUMP JUMPDEST PUSH1 0x1F DUP3 GT ISZERO PUSH2 0x732 JUMPI PUSH2 0x703 DUP2 PUSH2 0x5D1 JUMP JUMPDEST PUSH2 0x70C DUP5 PUSH2 0x5E3 JUMP JUMPDEST DUP2 ADD PUSH1 0x20 DUP6 LT ISZERO PUSH2 0x71B JUMPI DUP2 SWAP1 POP JUMPDEST PUSH2 0x72F PUSH2 0x727 DUP6 PUSH2 0x5E3 JUMP JUMPDEST DUP4 ADD DUP3 PUSH2 0x6CF JUMP JUMPDEST POP POP JUMPDEST POP POP POP JUMP JUMPDEST PUSH0 DUP3 DUP3 SHR SWAP1 POP SWAP3 SWAP2 POP POP JUMP JUMPDEST PUSH0 PUSH2 0x752 PUSH0 NOT DUP5 PUSH1 0x8 MUL PUSH2 0x737 JUMP JUMPDEST NOT DUP1 DUP4 AND SWAP2 POP POP SWAP3 SWAP2 POP POP JUMP JUMPDEST PUSH0 PUSH2 0x76A DUP4 DUP4 PUSH2 0x743 JUMP JUMPDEST SWAP2 POP DUP3 PUSH1 0x2 MUL DUP3 OR SWAP1 POP SWAP3 SWAP2 POP POP JUMP JUMPDEST PUSH2 0x783 DUP3 PUSH2 0x318 JUMP JUMPDEST PUSH8 0xFFFFFFFFFFFFFFFF DUP2 GT ISZERO PUSH2 0x79C JUMPI PUSH2 0x79B PUSH2 0x409 JUMP JUMPDEST JUMPDEST PUSH2 0x7A6 DUP3 SLOAD PUSH2 0x5A1 JUMP JUMPDEST PUSH2 0x7B1 DUP3 DUP3 DUP6 PUSH2 0x6F1 JUMP JUMPDEST PUSH0 PUSH1 0x20 SWAP1 POP PUSH1 0x1F DUP4 GT PUSH1 0x1 DUP2 EQ PUSH2 0x7E2 JUMPI PUSH0 DUP5 ISZERO PUSH2 0x7D0 JUMPI DUP3 DUP8 ADD MLOAD SWAP1 POP JUMPDEST PUSH2 0x7DA DUP6 DUP3 PUSH2 0x75F JUMP JUMPDEST DUP7 SSTORE POP PUSH2 0x841 JUMP JUMPDEST PUSH1 0x1F NOT DUP5 AND PUSH2 0x7F0 DUP7 PUSH2 0x5D1 JUMP JUMPDEST PUSH0 JUMPDEST DUP3 DUP2 LT ISZERO PUSH2 0x817 JUMPI DUP5 DUP10 ADD MLOAD DUP3 SSTORE PUSH1 0x1 DUP3 ADD SWAP2 POP PUSH1 0x20 DUP6 ADD SWAP5 POP PUSH1 0x20 DUP2 ADD SWAP1 POP PUSH2 0x7F2 JUMP JUMPDEST DUP7 DUP4 LT ISZERO PUSH2 0x834 JUMPI DUP5 DUP10 ADD MLOAD PUSH2 0x830 PUSH1 0x1F DUP10 AND DUP3 PUSH2 0x743 JUMP JUMPDEST DUP4 SSTORE POP JUMPDEST PUSH1 0x1 PUSH1 0x2 DUP9 MUL ADD DUP9 SSTORE POP POP POP JUMPDEST POP POP POP POP POP POP JUMP INVALID LOG2 PUSH5 0x6970667358 0x22 SLT KECCAK256 0x23 STOP 0xCB 0xC2 LOG2 0xDD 0x4D INVALID PUSH9 0x3C0F3F19EB45BAAA5E 0xBF 0xE9 0x2F SGT STOP JUMPDEST 0x2C CODESIZE PUSH18 0xA79D76C36164736F6C634300081E00330000 "
				},
				"gasEstimates": {
					"creation": {
						"codeDepositCost": "435000",
						"executionCost": "infinite",
						"totalCost": "infinite"
					},
					"external": {
						"academy()": "infinite",
						"getacademy(string)": "infinite",
						"getstudent(int120)": "24661",
						"setacademy()": "infinite",
						"setstudenty()": "2499",
						"student()": "2514"
					}
				},
				"methodIdentifiers": {
					"academy()": "4f5fc3c1",
					"getacademy(string)": "988f35eb",
					"getstudent(int120)": "2928b2a2",
					"setacademy()": "de219836",
					"setstudenty()": "5277c08d",
					"student()": "699450e8"
				}
			},
			"storageLayout": {
				"storage": [
					{
						"astId": 3,
						"contract": "Assignments/Assignments-1(17.02.2026)/EnrollmentInTechara.sol:StudentAge",
						"label": "academy",
						"offset": 0,
						"slot": "0",
						"type": "t_string_storage"
					},
					{
						"astId": 5,
						"contract": "Assignments/Assignments-1(17.02.2026)/EnrollmentInTechara.sol:StudentAge",
						"label": "student",
						"offset": 0,
						"slot": "1",
						"type": "t_int120"
					}
				],
				"types": {
					"t_int120": {
						"encoding": "inplace",
						"label": "int120",
						"numberOfBytes": "15"
					},
					"t_string_storage": {
						"encoding": "bytes",
						"label": "string",
						"numberOfBytes": "32"
					}
				}
			},
			"userdoc": {
				"kind": "user",
				"methods": {},
				"version": 1
			}
		}
	}
}